:020000040800F2
:10000000D0170020F10300084D0400084D0400083B
:100010004D0400084D0400084D04000800000000D5
:100020000000000000000000000000004D04000877
:100030004D040008000000004D0400084D040008B5
:100040004D0400084D0400084D0400084D0400084C
:100050004D0400084D0400084D0400084D0400083C
:100060004D0400084D0400084D0400084D0400082C
:100070004D0400084D0400084D0400084D0400081C
:100080004D0400084D0400084D0400084D0400080C
:100090004D0400084D0400084D0400084508000800
:1000A0004D0400084D0400084D0400084D040008EC
:1000B0004D040008190600084D0400084D0400080E
:1000C0004D0400084D0400084D0400084D040008CC
:1000D0004D0400084D0400084D0400084D040008BC
:1000E0004D0400084D0400084D0400084D040008AC
:1000F0004D0400084D0400084D0400084D0400089C
:100100004D0400084D040008950600084D04000841
:100110004D0400084D0400084D040008851A00082D
:100120004D0400084D0400084D0400084D0400086B
:100130004D0400084D0400084D0400084D0400085B
:100140004D0400084D0400084D0400084D0400084B
:100150004D0400084D0400084D0400084D0400083B
:100160004D0400084D0400084D0400084D0400082B
:100170004D0400084D0400084D0400084D0400081B
:100180004D0400084D04000890B484B000AF03464D
:100190000A46FB711346BB710023FB60BB7903F079
:1001A00003039B000F2202FA03F3FB601649BB799D
:1001B0009B08DBB21846144ABB799B08DBB20233BA
:1001C00052F82320FB68DB431A40831C41F82320AC
:1001D0000D48BB799B08DBB21C460B4ABB799B08D8
:1001E000DBB2023352F82320F979BB7903F0030321
:1001F0009B0001FA03F31A43A31C40F8232000BF1D
:100200001037BD4690BC70470038014080B483B0C1
:1002100000AF0346FB71084A074B1B6823F0040339
:100220001360FB79DB08DAB2044B1A7000BF0C379D
:10023000BD4680BC704700BF10E000E0B808002059
:1002400080B582B000AF0346FB8003E040F2E730A8
:1002500000F00AF8FB885A1EFA80002BF6D100BF86
:100260000837BD4680BD00BF80B485B000AF786060
:10027000124A134B1B7819467B6803FB01F353604A
:100280000E4B00229A600D4B01221A600B4B1B682B
:10029000FB60FB6803F00103002B04D0FB6803F450
:1002A0008033002BF2D0054B00221A60034B002252
:1002B0009A6000BF1437BD4680BC704710E000E074
:1002C000B808002080B485B000AF786039600023A2
:1002D000FB600023BB60134B1B68FB6040F6FE72A3
:1002E0007B6802FA03F3DB43FA681340FB603B6868
:1002F0001A683B685B681A433B689B681A433B6813
:10030000DB681343BB60BA687B6802FA03F3FA68E0
:100310001343FB60034AFB68136000BF1437BD46FC
:1003200080BC70470074004080B483B000AF786038
:100330000B46FB70FB78002B09D00C490B4B1A685D
:1003400001207B6800FA03F313430B6009E00749BF
:10035000064B1A6801207B6800FA03F3DB43134065
:100360000B6000BF0C37BD4680BC70470074004076
:1003700080B485B000AF78600B467B800023FB60C3
:10038000074BFB60FA687B6813440833FB60FB682B
:100390001A467B88136000BF1437BD4680BC704787
:1003A0000074004080B483B000AF78600B46FB70EF
:1003B000FB78002B0AD00D490C4B1A684FF4805083
:1003C0007B6800FA03F313430B600AE00749074B0D
:1003D0001A684FF480507B6800FA03F3DB43134044
:1003E0000B6000BF0C37BD4680BC704700740040F6
:1003F00080B582B000AF104B7B60104B3B6007E0D4
:100400003B681A1D3A607A68111D796012681A609B
:100410003B680B4A9342F3D30A480B494FF0000262
:100420008842B8BF40F8042BFADB00F057FC00BF4D
:100430000837BD4680BD00BF3F6C000800000020AB
:10044000B4080020B8080020D00F002080B400AF0E
:10045000FEE700BF80B58AB000AF0121082000F0A0
:100460000FFD4FF470433B62012387F824300023D3
:1004700087F82630032387F82530002387F82730B4
:1004800007F120031946254802F08EF801210120CA
:1004900000F0F6FC00233B774FF4D073BB610223DE
:1004A000FB7707F1180319461D4802F07DF801217A
:1004B0004FF4807000F020FD02233B6103233B7565
:1004C0000023FB7507F110031946154802F06CF87C
:1004D0000121012000F0D4FC1023BB6003233B73F7
:1004E00003237B730023FB7307F1080319460C48B1
:1004F00002F05AF80121102000F0C2FC4FF61C73E4
:100500003B6001233B710023FB713B4619460548C4
:1005100002F04AF800BF2837BD4680BD000C0240FB
:10052000000002400010024080B584B000AF0121FD
:10053000202000F0C3FC42F2CF03BB601423BB8039
:100540000023BB810023FB803B1D1946094804F0B2
:1005500051FE0121074804F0C5FE0121054804F0C1
:100560002FFF01220121034804F0DCFE00BF1037F9
:10057000BD4680BD0014004080B584B000AF0121AD
:10058000022000F09BFC4FF4C06004F0A1FD1D238D
:100590003B7300237B730023BB730123FB7307F1C1
:1005A0000C03184604F0A6FD42F2CF037B6042F232
:1005B0000F733B8000233B8100237B803B46194621
:1005C000074804F017FE0121054804F0F9FE012256
:1005D0000121034804F0A6FE00BF1037BD4680BDD0
:1005E0000004004080B582B000AF4FF4C06004F05A
:1005F0006FFD37233B7100237B710023BB71012307
:10060000FB713B1D184604F075FD00BF0837BD4661
:1006100080BD00BF0000000098B500AF01211A485E
:1006200004F0A4FE0346002B28D0184BD3E9003475
:100630001846214601F0BCF803460C46134AC2E9AD
:1006400000344FF48051124802F03CF80F4BD3E9CC
:1006500000341846214600F0CBFE0C4BD3E90001D4
:1006600007A3D3E9002304F0DDFE03460C46074A46
:10067000C2E900340121044804F0A2FE00BF98BD85
:100680007B14AE47E17A843F00040040D00800208C
:10069000000C024098B500AF0121484804F066FE06
:1006A0000346002B00F08780454B93F90030052B63
:1006B00018D14FF40051434802F020F84FF4FA707B
:1006C000FFF7BEFD4FF400513E4802F017F83E4BD5
:1006D00001221A703D4A4FF000034FF00004C2E9B6
:1006E000003459E0364B93F90030072B37D1384BA3
:1006F0001B7883F00103DBB2002B1AD0344B0122AC
:100700001A704FF480412F4801F0F8FF4FF48051E8
:100710002C4801F0E5FF00214FF0005000F0CEFB27
:1007200000212C4804F0DEFD0121022004F042FDEE
:1007300032E0274B00221A704FF48041214801F02B
:10074000DDFF0121234804F0CDFD01214FF00050D1
:1007500000F0B4FB0021022004F02CFD1CE0184B3B
:1007600093F90030082B17D1174BFF221A70174A44
:100770004FF000034FF00004C2E900344FF4004191
:10078000104801F0BBFF4FF4FA70FFF759FD4FF42A
:1007900000410C4801F0B2FF0021084804F094FD2C
:1007A0000121064804F00CFE0021044804F09AFDE3
:1007B000034BFF221A7000BF98BD00BF000C004021
:1007C00000000020000C0240C4080020D0080020D7
:1007D000CC0800200004004080B584B000AF0121A7
:1007E000082000F06BFB42F2CF03BB6040F6B7334A
:1007F000BB800023BB810023FB803B1D19461048B2
:1008000004F0F8FC00210E4804F06CFD32233B702C
:1008100000237B700023BB700123FB703B4618460E
:1008200004F068FC0121064804F0CAFD0122012100
:10083000034804F077FD00BF1037BD4680BD00BF00
:10084000000C004080B500AF202004F00FFC0346F0
:10085000002B0AD0174B05221A700121164804F00C
:1008600041FD202004F026FC22E0802004F0FEFB65
:100870000346002B0AD00F4B07221A7001210E48A5
:1008800004F030FD802004F015FC11E04FF480707E
:1008900004F0ECFB0346002B0AD0064B08221A702A
:1008A0000121054804F01EFD4FF4807004F002FCA5
:1008B00000BF80BD00000020000C004080B584B067
:1008C00000AF06233B7300237B730023BB7301231C
:1008D000FB7307F10C03184604F00CFC00233B7279
:1008E00008237B720123BB723B1D184604F04CFBAE
:1008F00017233B734FF4D0737B6007F10C0318464A
:1009000004F0F8FB3B1D184604F03EFB05210020D7
:10091000FFF73AFC07210020FFF736FC08210020F2
:10092000FFF732FC00BF1037BD4680BD80B584B0F4
:1009300000AF01214FF0005000F0C0FA04233B60EB
:1009400000237B600023FB600023BB603B4619460D
:100950000020FFF7B7FC00210020FFF709FD01216F
:100960000020FFF7E1FC00BF1037BD4680BD00BF8F
:1009700080B590B000AF01214FF4001000F080FA74
:100980001D4802F007F84FF060637B601B4BBB60B3
:100990001B4BFB6040233B614FF400737B610023E2
:1009A000BB614FF48063FB6100233B6200237B62E9
:1009B0004FF48073BB624FF40033FB6200233B6350
:1009C00001237B630023BB630023FB633B1D1946AC
:1009D000094802F0B1F80121074802F003F90121AA
:1009E0000020FFF7A1FC01210020FFF7DBFC00BF86
:1009F0004037BD4680BD00BF886002401074004093
:100A0000700B002080B584B000AF0121102000F0F1
:100A100055FA0023FB80BE23BB800A23BB603B1D2D
:100A20001946074804F0E6FB2021054804F0D8FCED
:100A30000021034804F056FC00BF1037BD4680BDBE
:100A40000010004080B58AB000AF0023BB610023D6
:100A5000FB6100233B6200237B6207F11803184609
:100A600000F0BCFA00233B6000233B7101237B7143
:100A70000023FB600023BB6000233B6101233B7527
:100A80003B461946084800F055FA0423012201218B
:100A9000054800F0E7FA0121034800F0C7FA00BF5B
:100AA0002837BD4680BD00BF0020014090B587B00B
:100AB00000AF03463960FB713B687B617B6909339A
:100AC0003B6101223969764803F01EFD0346FB7144
:100AD0002C21734804F006F80346FB7107F10C0360
:100AE0004FF400726F496E4803F02AFEFB79002B29
:100AF00003D16D4B00221A7006E06C4A4FF00003E0
:100B00004FF00004C2E900340121694804F0EAFB17
:100B10000121684804F0E6FBA4E0674800F06CFBA4
:100B200000BF0221644800F083FB0346002BF8D08D
:100B3000614800F071FB0346184605F0EDF90346E5
:100B40005E49184605F0F4FA03461A465C4B1A60F3
:100B50000023FB7205E05B495B4802F05FF8034647
:100B6000FB72FB7ADBB2002BF5D007F10C034FF4DC
:100B700080724C494A4803F0E3FD544B00221A604E
:100B800021E0524B1B68474AD35C184605F0C4F974
:100B900002464B4B1B681946104605F015FA0346F2
:100BA0001A464B4B1A60494B1C68494B1B68184648
:100BB00005F0D0FB0346DAB23A4B1A55434B1B689B
:100BC0000133424A1360414B1B68FF2BD9D93D4981
:100BD0003D4802F05DF8FB68FF2B4AD90023FB7209
:100BE00005E03C49384802F019F80346FB72FB7AED
:100BF000DBB2002BF5D007F10C034FF480723649BD
:100C0000274803F09DFD21E0304B1B68254AD35C4B
:100C1000184605F081F90246294B1B681946104613
:100C200005F0D2F903461A46294B1A60274B1C6877
:100C3000274B1B68184605F08DFB0346DAB2194BAB
:100C40001A55224B1B680133204A13601F4B1B6847
:100C5000B3F5007FD8D31F491B4802F019F8FB6891
:100C6000FF2B08D9104B93F90030002B3FF455AF00
:100C700002E000BF00E000BF00210E4804F032FB9C
:100C8000074803F00FFF0346FB71084A4FF00003CB
:100C90004FF00004C2E9003400BF1C37BD4690BDD0
:100CA00048090020700B0020C4080020D008002054
:100CB00000040040001000400020014000F07F458B
:100CC000DC0800200004002088600240C0080020EA
:100CD000D808002000080020700C0020B0B584B0B7
:100CE00004AF01F091FDFFF7B5FBFFF71DFCFFF727
:100CF00079FCFFF7A7FEFFF785FEFFF717FEFFF76A
:100D000037FEFFF769FDFFF7D9FDFFF735FC5020EF
:100D1000FFF77CFA00F016FF002001F019F901221C
:100D200001214C4803F0ACFB03461A464A4B1A70AB
:100D30004A494B4804F004F803461A46464B1A70D9
:100D4000454B1B78002B02D0434B1B787EE0454976
:100D5000434804F055F803461A463F4B1A703E4B81
:100D60001B78002B02D03C4B1B786FE03D4B5B7A2D
:100D7000002B2ED03C4B1B68002B14D13B4B1D6825
:100D8000384B6C4603F10C0207CA84E807000ECB0F
:100D9000284601F00DFD0246344B1A60334B1B68A8
:100DA000334A13600FE0314B1D682E4B6C4603F144
:100DB0000C0207CA84E807000ECB284601F0F8FCB5
:100DC00002462A4B1A60284B1B680133264A1360DF
:100DD000BDE700BF254B1B68254A12689A61244B6A
:100DE0001B68224A1268DA61214B1B68214A136092
:100DF000194B1A781F4B1B6819461046FFF756FE11
:100E00001D4B93F90030002B10DD174B1B68012B95
:100E1000EED9184B1B689B69164A1360174A4FF0AE
:100E200000034FF00004C2E90034E1E7124B93F9EC
:100E30000030B3F1FF3FDBD10B4B1B68012BD7D93F
:100E40000C4B1B68DB690B4A1360D1E71846BD46A3
:100E5000B0BD00BF980D0020C80F0020AC6B00088B
:100E6000740D002030090020C8080020E40800208C
:100E7000E0080020700D0020C4080020D0080020E9
:100E800080B483B000AF78600B46FB70FB78002B1A
:100E900006D00949084B1A6B7B6813430B6306E0C5
:100EA0000549054B1A6B7B68DB4313400B6300BF9E
:100EB0000C37BD4680BC70470038024080B483B018
:100EC00000AF78600B46FB70FB78002B06D0094919
:100ED000084B1A6C7B6813430B6406E00549054B0D
:100EE0001A6C7B68DB4313400B6400BF0C37BD46B4
:100EF00080BC70470038024080B483B000AF786097
:100F00000B46FB70FB78002B06D00949084B5A6C46
:100F10007B6813434B6406E00549054B5A6C7B68BC
:100F2000DB4313404B6400BF0C37BD4680BC7047A9
:100F30000038024080B485B000AF7860396000238B
:100F4000FB600023FB727B685B68FB60FB6823F03F
:100F5000407323F48073FB603B681B791A023B6883
:100F60001B681343FA681343FB607B68FA685A6096
:100F70007B689B68FB60FA68174B1340FB603B681B
:100F80001A693B68DB681A433B689B681A433B68F5
:100F90005B795B001343FA681343FB607B68FA6874
:100FA0009A607B68DB6AFB60FB6823F47003FB607C
:100FB0003B681B7D013BDAB2FB7A1343FB72FB7A81
:100FC0001B05FA681343FB607B68FA68DA6200BFAE
:100FD0001437BD4680BC7047FDF7FFC080B485B0B4
:100FE00000AF78600023FB600E4B5B68FB60FA6823
:100FF0000D4B1340FB607B681A687B685B681A4383
:101000007B689B681A437B68DB681343FA68134369
:10101000FB60044AFB68536000BF1437BD4680BCC8
:10102000704700BF00230140E030FCFF80B483B074
:1010300000AF78600B46FB70FB78002B06D07B6816
:101040009B6843F001027B689A6005E07B689B68BF
:1010500023F001027B689A6000BF0C37BD4680BC5C
:10106000704700BF80B485B000AF78600846114675
:101070001A460346FB700B46BB7013467B70002379
:10108000FB600023BB60FB78092B23D97B68DB68FE
:10109000FB60FB78A3F10A0213465B0013440722AE
:1010A00002FA03F3BB60BB68DB43FA681340FB60E2
:1010B0007978FB78A3F10A0213465B00134401FA26
:1010C00003F3BB60FA68BB681343FB607B68FA6894
:1010D000DA601EE07B681B69FB60FA7813465B00F0
:1010E0001344072202FA03F3BB60BB68DB43FA68D0
:1010F0001340FB607978FA7813465B00134401FAD9
:1011000003F3BB60FA68BB681343FB607B68FA6853
:101110001A61BB78062B21D87B685B6BFB60BB78C0
:101120005A1E13469B0013441F2202FA03F3BB60AE
:10113000BB68DB43FA681340FB60F978BB785A1E42
:1011400013469B00134401FA03F3BB60FA68BB68C3
:101150001343FB607B68FA685A6347E0BB780C2B4B
:1011600021D87B681B6BFB60BB78DA1F13469B00A2
:1011700013441F2202FA03F3BB60BB68DB43FA6827
:101180001340FB60F978BB78DA1F13469B001344C9
:1011900001FA03F3BB60FA68BB681343FB607B682A
:1011A000FA681A6322E07B68DB6AFB60BB78A3F114
:1011B0000D0213469B0013441F2202FA03F3BB6087
:1011C000BB68DB43FA681340FB60F978BB78A3F196
:1011D0000D0213469B00134401FA03F3BB60FA6847
:1011E000BB681343FB607B68FA68DA6200BF1437A0
:1011F000BD4680BC704700BF80B483B000AF78604C
:101200007B689B6843F080427B689A6000BF0C3724
:10121000BD4680BC704700BF80B483B000AF78602B
:101220007B68DB6C9BB218460C37BD4680BC7047B0
:1012300080B485B000AF78600B46FB700023FB7371
:101240007B681A68FB781340002B02D00123FB73E4
:1012500001E00023FB73FB7B18461437BD4680BCBE
:10126000704700BF80B400AF094B1B6C094AD360C4
:10127000074B1B6C074A9360054B1B6C054A536078
:10128000034B1B6C034A136000BFBD4680BC704714
:10129000040000206000002080B584B000AF7860BA
:1012A0000023FB6008E04D4B9A6C4D49FB6841F808
:1012B0002320FB680133FB60FB68032BF3DD7B68B5
:1012C00042F20F72934203DC7B6813F57A7F02DCF3
:1012D000FFF7C8FF7DE07B68DB0FDBB2BB607B689C
:1012E000002BB8BF5B427B6079683E4B83FB0123D8
:1012F0009A10CB17D21A13469B0013445B00CA1AEC
:10130000364B53F82230364AD360BB68002B03D0EB
:10131000324B1B6C324A93607B68092B1DDD7B6866
:10132000304A82FB03129210DB17D11A2D4B83FB3C
:1013300001239A10CB17D21A13469B0013445B006B
:10134000CA1A264B53F82230254A9360BB68002BFB
:1013500003D0224B1B6C224A53607B68632B1DDD3C
:101360007B68214A82FB03125211DB17D11A1D4BF5
:1013700083FB01239A10CB17D21A13469B00134408
:101380005B00CA1A154B53F82230154A5360BB68EC
:10139000002B03D0114B1B6C114A13607B68B3F513
:1013A0007A7F16DB7B68114A82FB03129211DB17EE
:1013B000D11A0C4B83FB01239A10CB17D21A134678
:1013C0009B0013445B00CA1A044B53F82230044AB2
:1013D000136000BF1037BD4680BD00BF0400002071
:1013E00060000020676666661F85EB51D34D621072
:1013F00090B585B000AFC7E9000101231C464FF04E
:1014000000024FF00003D7E9000104F02FFC03466F
:10141000002B01D100231C46E3B2FB609EA3D3E95D
:101420000023D7E9000104F03FFC0346002B09D15B
:101430009BA3D3E90023D7E9000104F017FC03467E
:10144000002B02D0FFF70EFF83E197A3D3E900231F
:10145000D7E9000104F028FC0346002B10D0D7E99F
:10146000000104F02BFC0346BB60B868FFF714FFD3
:101470008F4BDA688F4B5B6C13408D4AD36068E109
:10148000D7E9000104F042FC0346184600F07AF95F
:1014900003468949184604F049FF0346002B2DD026
:1014A000FB68002B10D0D7E9000104F007FC0346CD
:1014B000BB60B868FFF7F0FE7D4BDA687D4B5B6C74
:1014C00013407B4AD36044E14FF000027B4BD7E9E5
:1014D000000104F059F903460C461846214604F071
:1014E000EDFB0346BB60B868FFF7D6FE704B9A6809
:1014F000704B5B6C13406E4A93602AE1D7E90001A0
:1015000004F004FC0346184600F03CF903466C491D
:10151000184604F00BFF0346002B36D0FB68002B67
:1015200019D04FF00002654BD7E9000104F02CF907
:1015300003460C461846214604F0C0FB0346BB6038
:10154000B868FFF7A9FE5A4B9A685A4B5B6C134078
:10155000574A9360FDE04FF000025A4BD7E9000173
:1015600004F012F903460C461846214604F0A6FB87
:101570000346BB60B868FFF78FFE4D4B5A684D4B72
:101580005B6C13404A4A5360E3E0D7E9000104F082
:10159000BDFB0346184600F0F5F803464FF07E51B8
:1015A000184604F0C3FE0346002B36D0FB68002B20
:1015B00019D04FF00002434BD7E9000104F0E4F8E2
:1015C00003460C461846214604F078FB0346BB60F0
:1015D000B868FFF761FE364B5A68364B5B6C1340B8
:1015E000334A5360B5E04FF00002374BD7E90001B2
:1015F00004F0CAF803460C461846214604F05EFB88
:101600000346BB60B868FFF747FE294B1A68294BB1
:101610005B6C1340264A13609BE0D7E9000104F09D
:1016200075FB0346184600F0ADF803464FF0000185
:10163000184604F07BFE0346002B00D189E0FB68CE
:10164000002B43D04FF000021E4BD7E9000104F0FD
:101650009BF803460C461846214604F02FFB034630
:10166000BB60B868FFF718FE114B9A68114B1B6CF2
:101670009A4203D10F4B1B680D4A93600D4B1A68B9
:101680000C4B5B6C13400A4A53600A4B1B6C084AB4
:1016900013605EE0AFF30080000000008087C3406D
:1016A0000000000000388FC00000000000388F40AC
:1016B00060000020040000200000C8420000244018
:1016C000000020410000594000408F404FF00002D0
:1016D000294BD7E9000104F057F803460C46184699
:1016E000214604F0EBFA0346BB60B868FFF7D4FD6F
:1016F0001BA3D3E90023D7E9000104F0B7FA03469E
:10170000002B1FD01D4B1B681D4A536016A3D3E945
:101710000023D7E9000104F0A9FA0346002B11D0F9
:10172000164B1B68164A936011A3D3E90023D7E92F
:10173000000104F09BFA0346002B03D00F4B1B68FB
:101740000F4AD3600D4B1A680C4B5B6C13400C4A6C
:10175000136000BF1437BD4690BD00BFAFF30080DB
:101760009A9999999999B93F7B14AE47E17A843F48
:10177000FCA9F1D24D62503F00408F400400002090
:101780006000002080B582B000AF78604FF00001AB
:10179000786804F0B7FD0346002B03D07B6883F024
:1017A000004300E07B6818460837BD4680BD00BF97
:1017B00090B583B000AFC7E9000181A3D3E900234E
:1017C000D7E9000104F070FA0346002B0ED07EA387
:1017D000D3E90023D7E9000104F048FA0346002BBF
:1017E00004D04FF000039E4CC7E9003478A3D3E93E
:1017F0000023D7E9000104F057FA0346002B0FD06D
:1018000075A3D3E90023D7E9000104F02FFA0346BA
:10181000002B05D04FF000034FF08044C7E900349F
:101820006FA3D3E90023D7E9000104F03DFA034692
:10183000002B0ED06CA3D3E90023D7E9000104F0FC
:1018400015FA0346002B04D04FF00003854CC7E97E
:10185000003467A3D3E90023D7E9000104F024FA98
:101860000346002B0ED064A3D3E90023D7E900017F
:1018700004F0FCF90346002B04D04FF000037A4C2F
:10188000C7E900345EA3D3E90023D7E9000104F0DF
:101890000BFA0346002B0ED05BA3D3E90023D7E954
:1018A000000104F0E3F90346002B04D04FF00003DD
:1018B0006E4CC7E9003456A3D3E90023D7E90001F1
:1018C00004F0F2F90346002B0ED053A3D3E9002312
:1018D000D7E9000104F0CAF90346002B04D04FF009
:1018E0000003634CC7E900344DA3D3E90023D7E9D3
:1018F000000104F0D9F90346002B0ED04AA3D3E926
:101900000023D7E9000104F0B1F90346002B04D00D
:101910004FF00003574CC7E9003445A3D3E9002337
:10192000D7E9000104F0C0F90346002B0ED042A312
:10193000D3E90023D7E9000104F098F90346002B0E
:1019400004D04FF000034C4CC7E900343CA3D3E96A
:101950000023D7E9000104F0A7F90346002B0ED0BD
:1019600039A3D3E90023D7E9000104F07FF9034646
:10197000002B04D04FF00003404CC7E9003434A3DF
:10198000D3E90023D7E9000104F08EF90346002BC8
:101990000ED031A3D3E90023D7E9000104F066F9A2
:1019A0000346002B04D04FF00003354CC7E9003448
:1019B000D7E90034184621460C37BD4690BD00BF1C
:1019C000E17A14AE47E1E23F333333333333E33F5D
:1019D000713D0AD7A370F93F9A9999999999F93F5E
:1019E000B81E85EB51B80440CDCCCCCCCCCC044057
:1019F000B81E85EB51B80C40CDCCCCCCCCCC0C4037
:101A00005C8FC2F5285C12406666666666661240A8
:101A10005C8FC2F5285C1640666666666666164090
:101A20005C8FC2F5285C1A406666666666661A4078
:101A30005C8FC2F5285C1E406666666666661E4060
:101A4000AE47E17A142E2140333333333333214010
:101A5000AE47E17A142E23403333333333332340FC
:101A60000000F03F0000084000001040000014405B
:101A70000000184000001C400000204000002240F0
:101A80000000244080B582B000AF1423FB80012108
:101A9000174803F06BFC0346002B25D01549164B65
:101AA0001B68164A52F82320134B1B68144850F841
:101AB000233013434B61104B1B6801330E4A1360F4
:101AC0000D4B1B68032B02D90B4B00221A60FB88BD
:101AD0000133FB80FB88B3F57A7F01D90023FB80BB
:101AE0000121034803F06CFC00BF0837BD4680BDF0
:101AF0000014004000100240E808002060000020B0
:101B00005000002080B400AF054A054B5B8B9BB2B0
:101B100043F400639BB2538300BFBD4680BC704753
:101B20000004024080B400AF054A054B1B8B9BB2FA
:101B300043F400639BB2138300BFBD4680BC704773
:101B40000004024080B588B000AF394A384B1B6BA7
:101B500043F002031363364A354B1B6C43F4804356
:101B6000136401214FF48040FFF7A8F901210220FE
:101B7000FFF786F92F4A2F4B1B6843F4800313604D
:101B80002C4A2C4B9B6843F44003936005220D21A3
:101B9000284800F0C5FD05220E21264800F0C0FDB2
:101BA00005220F21234800F0BBFD4FF46043BB61C9
:101BB00002233B7702237B770123FB7707F118038E
:101BC00019461C4800F0F0FC0023BB804FF48273E0
:101BD000FB8000233B8102237B810123BB814FF4E7
:101BE0000073FB8108233B8200237B820723BB8297
:101BF0003B1D1946104803F043F900210E4803F03D
:101C0000A3F901210C4803F07FF9094A084B1B6A2C
:101C100043F400431362064A054B1B6A23F4004356
:101C20001362FFF77FFF00BF2037BD4680BD00BFB6
:101C300000380240000402400038004080B485B003
:101C400000AF0346FB710023FB7300BF0D4B1B89E4
:101C50009BB203F00203002BF8D00A4BFA7992B240
:101C60009A8100BF074B1B899BB203F00103002B35
:101C7000F8D0044B9B899BB2FB7300BF1437BD4661
:101C800080BC70470038004080B483B000AF0023B0
:101C9000BB7100BF124B1B899BB203F00203002BE8
:101CA000F8D00F4BFF229A8100BF0D4B1B899BB2CE
:101CB00003F00103002BF8D00023FB7102E0FB7955
:101CC0000133FB71FB79092BF9D9054B9B899BB239
:101CD000BB71BB7918460C37BD4680BC704700BF4E
:101CE0000038004080B582B000AF7860FFF7CCFFCD
:101CF00003461A467B681A7000BF0837BD4680BD90
:101D000080B582B000AF0B4B32221A70FFF7BCFFD8
:101D1000FFF7BAFF0346FB71FB79FF2B04D0054B9D
:101D20001B78DBB2002BF3D1FB7918460837BD4690
:101D300080BD00BFED08002080B582B000AFFFF786
:101D4000F1FE0023FB7105E0FF20FFF777FFFB7931
:101D50000133FB71FB79092BF6D9034B01221A7071
:101D600000BF0837BD4680BDEF08002080B400AF3B
:101D7000034B00221A7000BFBD4680BC704700BFF5
:101D8000EF08002080B400AF024B1B781846BD4618
:101D900080BC7047EF08002080B584B000AF786049
:101DA0003960174B0A221A70FFF76EFF0346FB7368
:101DB000FB7BFF2B04D1124B1B78DBB2002BF3D142
:101DC000FB7BFE2B01D0002316E07B685A1C7A6057
:101DD0001846FFF787FF7B685A1C7A601846FFF7A2
:101DE00081FF3B68023B3B603B68002BEDD1FFF776
:101DF0004BFFFFF749FF012318461037BD4680BD52
:101E0000EC08002080B584B000AF78600B46FB7012
:101E10000023BB60FFF774FF0346FF2B01D00023B4
:101E200040E0FB781846FFF709FFFB78FD2B31D027
:101E30000023BB737B685A1C7A601B781846FFF737
:101E4000FDFE7B685A1C7A601B781846FFF7F6FE89
:101E5000BB7B013BBB73BB7B002BEBD1FFF714FFBC
:101E6000FFF712FF0BE0FFF70FFF0346FB73FB7B4F
:101E700003F01F03052B06D0BB680133BB60BB68B2
:101E8000402BF0D900E000BF00BFFFF7FDFE034686
:101E9000002BFAD0FB7B03F01F03052B01D101239C
:101EA00000E0002318461037BD4680BD80B584B0E1
:101EB00000AF03463960FB71FFF722FF0346FF2B9B
:101EC00001D0FF2340E0FB791846FFF7B7FE3B68DF
:101ED0001B0EDBB21846FFF7B1FE3B681B0CDBB2F2
:101EE0001846FFF7ABFE3B681B0ADBB21846FFF74C
:101EF000A5FE3B68DBB21846FFF7A0FE0023FB738C
:101F0000FB79402B01D19523FB73FB79482B01D141
:101F10008723FB73FB7B1846FFF790FEFB794C2B66
:101F200001D1FFF7B1FEE823FB73FFF7ADFE0346D7
:101F3000BB7397F90E30002B05DAFB7B013BFB737B
:101F4000FB7B002BF1D1BB7B18461037BD4680BD13
:101F500090B585B000AF0346FB71FB79002B01D033
:101F60000123D5E06C4B1B78DBB203F00203002B9E
:101F700003D0694B1B78DBB2CAE0FFF7DDFEFFF749
:101F8000C1FD0023BB7300214020FFF78FFF0346F4
:101F9000012B40F0A580614B64221A704FF4D5717B
:101FA0004820FFF783FF0346012B58D10023FB7322
:101FB0000CE0FC7BFFF768FE03461A4607F11003AE
:101FC000234403F8082CFB7B0133FB73FB7B032BBF
:101FD000EFD9BB7A012B40F08380FB7AAA2B7FD10B
:101FE00000217720FFF762FF0346012B07D84FF04F
:101FF00080416920FFF75AFF0346002B05D0474B6D
:102000001B78DBB2002BEBD100E000BF434B1B7809
:10201000DBB2002B64D000217A20FFF747FF034694
:10202000002B5DD10023FB730CE0FC7BFFF72CFE43
:1020300003461A4607F11003234403F8082CFB7BE0
:102040000133FB73FB7B032BEFD93B7A03F0400397
:10205000002B01D0062300E00223BB7340E00021E7
:102060007720FFF723FF0346012B08D800216920C2
:10207000FFF71CFF0346012B01D8022300E00123D8
:10208000BB73BB7B022B0ED100217720FFF70EFF25
:102090000346012B0ED800216920FFF707FF0346F6
:1020A000002B07D10DE000214120FFF7FFFE034682
:1020B000002B05D0194B1B78DBB2002BE1D100E0DF
:1020C00000BF164B1B78DBB2002B07D04FF400711A
:1020D0005020FFF7EBFE0346002B01D00023BB731B
:1020E0000F4ABB7B1370FFF71DFDFFF7CDFDBB7BD8
:1020F000002B08D0084B1B78DBB223F00103DAB2C7
:10210000054B1A7001E0FFF731FE034B1B78DBB281
:1021100018461437BD4690BD70000020EC08002022
:10212000EE08002080B483B000AF0346FB71FB795A
:10213000002B01D0012302E0034B1B78DBB21846D1
:102140000C37BD4680BC70477000002080B584B05D
:1021500000AFB9607A601A460346FB731346BB733F
:10216000FB7B002B02D1BB7B002B01D1042351E070
:102170002A4B1B78DBB203F00103002B01D00323B1
:1021800048E0274B1B7803F00403002B02D17B6847
:102190005B027B60FFF7B6FCBB7B012B11D179683A
:1021A0005120FFF783FE0346002B29D14FF4007125
:1021B000B868FFF7F1FD0346002B21D00023BB7365
:1021C0001EE079685220FFF771FE0346002B17D1FD
:1021D0004FF40071B868FFF7DFFD0346002B0AD00B
:1021E000BB6803F50073BB60BB7B013BBB73BB7B70
:1021F000002BEDD100E000BF00214C20FFF756FE80
:10220000FFF790FCFFF740FDBB7B002B14BF0123C1
:102210000023DBB218461037BD4680BD7000002099
:10222000EE08002080B584B000AFB9607A601A462D
:102230000346FB731346BB73FB7B002B02D1BB7BB6
:10224000002B01D104236CE0384B1B78DBB203F088
:102250000103002B01D0032363E0344B1B78DBB276
:1022600003F00403002B01D002235AE0304B1B780B
:1022700003F00403002B02D17B685B027B60FFF755
:1022800041FCBB7B012B10D179685820FFF70EFE73
:102290000346002B3BD1FE21B868FFF7B3FD034690
:1022A000002B34D00023BB7331E0214B1B7803F0AB
:1022B0000203002B08D000217720FFF7F7FDBB7B3E
:1022C00019465720FFF7F2FD79685920FFF7EEFD18
:1022D0000346002B1BD1FC21B868FFF793FD034692
:1022E000002B0AD0BB6803F50073BB60BB7B013BCE
:1022F000BB73BB7B002BEED100E000BFFD210020B3
:10230000FFF780FD0346002B01D10123BB73FFF7CC
:1023100009FCFFF7B9FCBB7B002B14BF0123002392
:10232000DBB218461037BD4680BD00BF70000020EC
:10233000EE08002090B58BB000AF03463A60FB7109
:102340000B46BB713B683B62FB79002B01D0042339
:1023500019E1012387F82730BB79052B27D13B6A88
:102360001B78012B0ED0022B12D0002B1BD1FFF7B4
:1023700009FD0346002B01D0FFF7F8FC002387F886
:102380002730FEE0FFF7D8FC002387F82730F8E07D
:102390003B6A5C1CFFF7F6FC0346DBB223700023AC
:1023A00087F82730EDE0042387F82730E9E0784B01
:1023B0001B78DBB203F00103002B01D00323E2E022
:1023C000FFF7A0FBBB790D2B00F2CC8001A252F8E5
:1023D00023F000BFCF2400080D240008BF2400080C
:1023E00065250008652500086525000865250008A5
:1023F0006525000865250008652500086525000895
:10240000E1240008052500082925000800214920AD
:10241000FFF74CFD0346002B40F0A88007F10C03AA
:1024200010211846FFF7B8FC0346002B00F09E80F1
:102430003B7B9B09DBB2012B0ED17B7D9AB23B7DAE
:102440009BB21B029BB213449BB20133FB83FB8BF9
:102450009A023B681A602EE07B7C03F00F03DAB22D
:10246000BB7DDB09DBB21344DAB27B7D5B00DBB200
:1024700003F00603DBB21344DBB2023387F82630E5
:102480003B7D9B09DBB29AB2FB7C9BB29B009BB26B
:1024900013449AB2BB7C9B029BB203F440639BB291
:1024A00013449BB20133FB83FA8B97F82630093B28
:1024B0009A403B681A60002387F8273056E03B6853
:1024C0004FF400721A80002387F8273055E0FFF799
:1024D00017FC0346FF2B4BD1002387F8273047E03A
:1024E00000214920FFF7E2FC0346002B42D11021D6
:1024F000386AFFF751FC0346002B3BD0002387F8D6
:10250000273037E000214A20FFF7D0FC0346002B9C
:1025100032D11021386AFFF73FFC0346002B2BD045
:10252000002387F8273027E000217A20FFF7BEFC40
:102530000346002B16D1002387F826300BE03C6AB7
:10254000631C3B62FFF7A0FB0346237097F826301D
:10255000013387F8263097F82630032BEFD9002374
:1025600087F82730042387F8273006E000BF04E00F
:1025700000BF02E000BF00E000BFFFF7D3FAFFF7A3
:1025800083FB97F8273018462C37BD4690BD00BF17
:102590007000002080B400AF024B1846BD4680BCDE
:1025A000704700BF0060614880B487B000AF7860BA
:1025B000396000237B6100233B610023FB60002323
:1025C0007B6176E001227B6902FA03F33B613B68A1
:1025D0001A683B691340FB60FA683B699A4265D10F
:1025E0007B681A687B695B00032101FA03F3DB4314
:1025F0001A407B681A607B681A683B681B79194629
:102600007B695B0001FA03F31A437B681A603B683D
:102610001B79012B03D03B681B79022B2ED17B68E1
:102620009A687B695B00032101FA03F3DB431A40DC
:102630007B689A607B689A683B685B7919467B691E
:102640005B0001FA03F31A437B689A607B685A685F
:102650007B699BB2194601238B40DB431A407B68A0
:102660005A607B685B683A68927911467A6992B2DF
:1026700001FA02F292B21A437B685A607B68DA6808
:102680007B699BB25B00032101FA03F3DB431A4031
:102690007B68DA607B68DA683B68DB7919467B69BE
:1026A0005B0001FA03F31A437B68DA607B6901334C
:1026B0007B617B690F2B85D900BF1C37BD4680BC71
:1026C000704700BF80B483B000AF78600B467B805A
:1026D0007B687A881A8300BF0C37BD4680BC704780
:1026E00080B483B000AF78600B467B807B687A88CB
:1026F0005A8300BF0C37BD4680BC704780B483B09E
:1027000000AF78600B467B807B685A697B885A40B3
:102710007B685A6100BF0C37BD4680BC704700BF64
:1027200080B485B000AF78600B467B8013467B7029
:102730000023FB600023BB607A787B8803F00703EB
:102740009B0002FA03F3FB607B88DB089BB2184610
:102750007B88DB089BB21A467B68083253F822203C
:102760007B8803F007039B000F2101FA03F3DB438F
:1027700002EA03017B6800F1080243F822107B881B
:10278000DB089BB21A467B68083253F82220FB68AC
:102790001343BB607B88DB089BB21A467B68083218
:1027A000B96843F8221000BF1437BD4680BC70479B
:1027B00084B0B0B584B000AF786007F1240080E841
:1027C0000E00202003F0E6FD0346FB60FB681D467B
:1027D00007F124040FCC0FC594E8030085E803003B
:1027E000FB6800229A61FB687A68DA617B68002BDB
:1027F00002D07B68FA689A61FB6818461037BD46BC
:10280000BDE8B04004B0704780B500AF124A124B2B
:102810001B6843F0010313600F4B00229A600E4ABD
:102820000D4B1B6823F0847323F4803313600A4B31
:102830000A4A5A60084A084B1B6823F48023136035
:10284000054B0022DA6000F00DF8054B4FF00062F6
:102850009A6000BF80BD00BF0038024010300024E5
:1028600000ED00E080B483B000AF00237B60002364
:102870003B60354A344B1B6843F480331360324B62
:102880001B6803F400333B607B6801337B603B686B
:10289000002B03D17B68B3F5A06FF0D12A4B1B68E6
:1028A00003F40033002B02D001233B6001E000233E
:1028B0003B603B68012B42D1234A234B1B6C43F006
:1028C00080531364214A214B1B6843F480431360F7
:1028D0001D4A1D4B9B6893601B4A1B4B9B6843F42E
:1028E00000439360184A184B9B6843F4A0539360CD
:1028F000154B174A5A60144A134B1B6843F08073F8
:10290000136000BF104B1B6803F00073002BF9D05D
:10291000104B40F205621A600B4A0B4B9B6823F088
:1029200003039360084A084B9B6843F002039360DB
:1029300000BF054B9B6803F00C03082BF9D100BFC7
:102940000C37BD4680BC7047003802400070004024
:1029500007544007003C024080B485B000AF786067
:102960000A4B1B68002B02D1084B094A1A60074B1F
:102970001B68FB60054B1A687B681344034A1360AD
:10298000FB6818461437BD4680BC7047F00800202D
:10299000D00F002080B483B000AF78607B681B68E4
:1029A00023F001027B681A607B6800221A607B6852
:1029B00000225A607B6800229A607B680022DA60FD
:1029C0007B6800221A617B6821225A617B68454A34
:1029D000934203D1444B3D229A607EE07B68434A98
:1029E000934204D1404B4FF474629A6075E07B6867
:1029F0003F4A934204D13C4B4FF474129A606CE00E
:102A00007B683C4A934204D1374B4FF074629A6022
:102A100063E07B68384A934203D1334B374ADA602C
:102A20005BE07B68364A934203D12F4B354ADA602C
:102A300053E07B68344A934203D12B4B334ADA602C
:102A40004BE07B68324A934204D1274B4FF03D5212
:102A5000DA6042E07B682F4A934203D12E4B3D223D
:102A60009A603AE07B682D4A934204D12A4B4FF496
:102A700074629A6031E07B68294A934204D1264B04
:102A80004FF474129A6028E07B68264A934204D17E
:102A9000214B4FF074629A601FE07B68224A934298
:102AA00003D11D4B154ADA6017E07B681F4A934239
:102AB00003D1194B134ADA600FE07B681C4A93423A
:102AC00003D1154B114ADA6007E07B68194A93423B
:102AD00003D1114B4FF03D52DA6000BF0C37BD46B9
:102AE00080BC7047106002400060024028600240D5
:102AF0004060024058600240706002403D0000208B
:102B000088600240400F0020A060024000003D208D
:102B1000B860024010640240006402402864024031
:102B2000406402405864024070640240886402407D
:102B3000A0640240B864024080B485B000AF786001
:102B400039600023FB607B681B68FB60FA68244BDC
:102B50001340FB603B681A683B68DB681A433B68BC
:102B60005B691A433B689B691A433B68DB691A43FC
:102B70003B681B6A1A433B685B6A1A433B689B6A63
:102B80001A433B685B6B1A433B689B6B1343FA68C1
:102B90001343FB607B68FA681A607B685B69FB60C3
:102BA000FB6823F00703FB603B68DA6A3B681B6B3A
:102BB0001343FA681343FB607B68FA685A613B6809
:102BC0001A697B685A603B685A687B689A603B6800
:102BD0009A687B68DA6000BF1437BD4680BC7047D6
:102BE0003F801CF080B483B000AF78600B46FB7070
:102BF000FB78002B06D07B681B6843F001027B68E2
:102C00001A6005E07B681B6823F001027B681A608C
:102C100000BF0C37BD4680BC704700BF80B487B092
:102C200000AF786039600023FB750023FB607B6890
:102C3000144A934202D8144B3B6101E0134B3B61B1
:102C40003B6803F00053002B03D03B695B68FB60DB
:102C500002E03B691B68FB60FB6823F0F02323F074
:102C60008213FB60FA683B681340002B02D00123FB
:102C7000FB7501E00023FB75FB7D18461C37BD4644
:102C800080BC70470F640240006002400064024054
:102C900080B485B000AF786039607B68104A934299
:102CA00002D8104BFB6001E00F4BFB603B6803F068
:102CB0000053002B07D03B6823F0F02323F082134E
:102CC000FA68D36006E03B6823F0F02323F0821318
:102CD000FA68936000BF1437BD4680BC704700BFE0
:102CE0000F640240006002400064024080B485B07E
:102CF00000AF78607B6801331B78FB81FB891B0286
:102D00001AB27B681B781BB213431BB2FB81FB8991
:102D100018461437BD4680BC704700BF80B485B0EC
:102D200000AF78607B6803331B78FB60FB681B0295
:102D30007A68023212781343FB60FB681B027A68E0
:102D4000013212781343FB60FB681B027A68127829
:102D50001343FB60FB6818461437BD4680BC7047C0
:102D600080B483B000AF78600B467B807B685A1CD0
:102D70007A607A88D2B21A707B881B0A7B807B6863
:102D80005A1C7A607A88D2B21A7000BF0C37BD46DE
:102D900080BC704780B483B000AF786039607B68D6
:102DA0005A1C7A603A68D2B21A703B681B0A3B60C0
:102DB0007B685A1C7A603A68D2B21A703B681B0A68
:102DC0003B607B685A1C7A603A68D2B21A703B68E2
:102DD0001B0A3B607B685A1C7A603A68D2B21A7050
:102DE00000BF0C37BD4680BC704700BF80B487B0C1
:102DF00000AFF860B9607A60FB687B61BB683B61DB
:102E00007B68002B0DD07B695A1C7A613A69511C92
:102E1000396112781A707B68013B7B607B68002BFC
:102E2000F1D100BF1C37BD4680BC704780B487B06D
:102E300000AFF860B9607A60FB687B617B695A1CFF
:102E40007A61BA68D2B21A707B68013B7B607B689A
:102E5000002BF3D100BF1C37BD4680BC704700BFBC
:102E600080B489B000AFF860B9607A60FB68FB613C
:102E7000BB68BB6100237B61FB695A1CFA611B784C
:102E80001946BB695A1CBA611B78CB1A7B617B68F7
:102E9000013B7B607B68002B02D07B69002BEBD071
:102EA0007B6918462437BD4680BC704780B483B028
:102EB00000AF7860396002E07B6801337B607B683B
:102EC0001B78002B05D07B681B781A463B689A421A
:102ED000F2D17B681B7818460C37BD4680BC704722
:102EE00080B586B000AF78600023FB737B68DB7829
:102EF000002B34D07B68DB6A7B617B6858787B6809
:102F000003F1300101237A69FFF78CF90346002BA6
:102F100002D00123FB7322E07B680022DA707B6819
:102F20001B6A7A69D21A7B689B699A4217D27B68BE
:102F30009B783B6110E07B689B697A6913447B61F5
:102F40007B6858787B6803F1300101237A69FFF7C9
:102F500069F93B69013B3B613B69012BEBD8FB7B8A
:102F600018461837BD4680BD80B584B000AF786084
:102F700039600023FB737B68DA6A3B689A421BD096
:102F80007868FFF7ADFF0346FB73FB7B002B13D183
:102F90007B6858787B6803F1300101233A68FFF7BA
:102FA000D5F80346002B04D04FF0FF333B600123DC
:102FB000FB737B683A68DA62FB7B18461037BD46C4
:102FC00080BD00BF80B584B000AF78607868FFF73F
:102FD00087FF0346FB73FB7B002B58D17B681B7874
:102FE000032B48D17B681B79012B44D17B6830339C
:102FF0004FF4007200211846FFF718FF7B6830334A
:1030000003F5FF734AF655211846FFF7A9FE7B68C2
:10301000303321491846FFF7BDFE7B68303303F596
:10302000F2731E491846FFF7B5FE7B68303303F58F
:10303000F4727B681B6919461046FFF7ABFE7B688C
:10304000303303F5F6727B68DB6819461046FFF7EC
:10305000A1FE7B68DB695A1C7B68DA627B68587862
:103060007B6803F130017B68DA6A0123FFF7DAF845
:103070007B6800221A717B685B7800220021184669
:10308000FFF758F90346002B01D00123FB73FB7BAC
:1030900018461037BD4680BD52526141727241617F
:1030A00080B483B000AF786039603B68023B3B601E
:1030B0007B685B699A1E3B689A4201D8002308E04E
:1030C0007B685B891A463B6803FB02F27B689B6A5C
:1030D000134418460C37BD4680BC704780B586B097
:1030E00000AF786039607B681B683B613B68012BEF
:1030F00004D93B695A693B689A4202D801237B6133
:103100008AE04FF0FF337B613B691B78022B45D08F
:10311000032B5CD0012B75D13B68FB60FB685B081F
:10312000FA681344FB603B691A6AFB685B0A134444
:1031300019463869FFF718FF0346002B65D1FB6875
:103140005A1CFA60C3F308033A69134493F8303009
:10315000BB603B691A6AFB685B0A1344194638690D
:10316000FFF702FF0346002B51D1FB68C3F30803AE
:103170003A69134493F830301B021A46BB68134374
:10318000BB603B6803F00103002B02D0BB681B0946
:1031900002E0BB68C3F30B037B613DE03B691A6A45
:1031A0003B681B0A134419463869FFF7DDFE0346E6
:1031B000002B2ED13B685B0003F4FF7330333A6978
:1031C00013441846FFF792FD03467B6124E03B69F8
:1031D0001A6A3B68DB09134419463869FFF7C4FED5
:1031E0000346002B17D13B689B0003F4FE7330337A
:1031F0003A6913441846FFF791FD034623F07043E4
:103200007B6109E001237B6106E000BF04E000BFB1
:1032100002E000BF00E000BF7B6918461837BD46DA
:1032200080BD00BF90B589B000AFF860B9607A602A
:103230000223FB77BB68012B40F2D180FB685A69FF
:10324000BB689A4240F2CB80FB681B78022B71D09E
:10325000032B00F08E80012B40F0C180BB68BB6166
:10326000BB695B08BA691344BB61FB681A6ABB6936
:103270005B0A13441946F868FFF776FE0346FB77AE
:10328000FB7F002B40F0A480BB695A1CBA61C3F3DA
:1032900008033033FA6813447B61BB6803F0010311
:1032A000002B0DD07B691B785BB203F00F035AB281
:1032B0007B68DBB21B015BB213435BB2DBB201E0A4
:1032C0007B68DBB27A691370FB680122DA70FB68F5
:1032D0001A6ABB695B0A13441946F868FFF744FE93
:1032E0000346FB77FB7F002B74D1BB69C3F3080354
:1032F0003033FA6813447B61BB6803F00103002B91
:1033000003D07B681B09DBB20EE07B691B785BB2E4
:1033100023F00F035AB27B681B0A5BB203F00F0362
:103320005BB213435BB2DBB27A691370FB680122B4
:10333000DA7054E0FB681A6ABB681B0A134419462A
:10334000F868FFF711FE0346FB77FB7F002B43D1A4
:10335000BB685B0003F4FF733033FA6813447A6888
:1033600092B211461846FFF7FBFCFB680122DA70A7
:1033700035E0FB681A6ABB68DB0913441946F86834
:10338000FFF7F2FD0346FB77FB7F002B26D17B681E
:1033900023F07044BB689B0003F4FE733033FA687B
:1033A00013441846FFF7BAFC034603F07043234367
:1033B0007B60BB689B0003F4FE733033FA681344F0
:1033C00079681846FFF7E6FCFB680122DA7006E030
:1033D00000BF04E000BF02E000BF00E000BFFB7FD1
:1033E00018462437BD4690BD80B588B000AFF86060
:1033F000B9607A600023FB77FB681B68BB61BB6820
:10340000012B04D9BB695A69BB689A4201D80223CF
:1034100049E07B68002B0CD04FF0FF327968B86927
:10342000FFF700FF0346FB77FB7F002B01D0FB7FFC
:1034300039E0B968F868FFF751FE78617B69002BC5
:103440002FD07B69012B01D102232CE07B69B3F1E2
:10345000FF3F01D1012326E00022B968B869FFF7D8
:10346000E1FE0346FB77FB7F002B01D0FB7F1AE0D8
:10347000BB691B69B3F1FF3F0BD0BB691B695A1CC9
:10348000BB691A61BB691B7943F00103DAB2BB69FE
:103490001A717B69BB60BB695A69BB689A42C8D81C
:1034A00000E000BF002318462037BD4680BD00BFA6
:1034B00080B588B000AF786039607B681B683B617D
:1034C0003B68002B0DD13B69DB68BB61BB69002BFE
:1034D00004D03B695A69BB699A421BD80123BB617E
:1034E00018E039687868FFF7F9FDF860FB68012B90
:1034F00001D8012370E0FB68B3F1FF3F01D1FB6805
:103500006AE03B695A69FB689A4201D9FB6863E04B
:103510003B68BB61BB69FB61FB690133FB613B69D4
:103520005A69FB699A4207D80223FB61FA69BB69B1
:103530009A4201D900234FE0F9697868FFF7CEFD80
:10354000F860FB68002B0ED0FB68012B03D0FB68F2
:10355000B3F1FF3F01D1FB683EE0FA69BB699A42D3
:10356000DAD1002338E000BF4FF0FF32F969386943
:10357000FFF758FE0346FB75FB7D002B09D13B6826
:10358000002B06D0FA6939683869FFF74BFE03460D
:10359000FB75FB7D002B16D13B69FA69DA603B694C
:1035A0001A693B695B69023B9A4204D23B691B6919
:1035B0005A1E3B691A613B691B7943F00103DAB279
:1035C0003B691A7107E0FB7D012B02D14FF0FF33FD
:1035D00000E00123FB61FB6918462037BD4680BD32
:1035E00080B586B000AF786039607B681B683B614E
:1035F0003B68B3F5001F04D23B6803F01F03002BA8
:1036000001D0022363E07B683A681A617B689B689B
:103610007B617B69002B06D13B691B78022B02D9A9
:103620003B695B6A7B617B69002B0CD13B685B0962
:103630003A691289934201D3022348E03B695A6AEE
:103640007B689A6129E03B695B895B02FB6019E05A
:103650007B6879691846FFF741FD78617B69B3F1B2
:10366000FF3F01D1012332E07B69012B04D93B6983
:103670005A697B699A4201D8022328E03A68FB68BC
:10368000D31A3B603A68FB689A42E1D2796938699B
:10369000FFF706FD02467B689A617B687A695A618A
:1036A0007B689B69002B01D1022310E07B689A693B
:1036B0003B685B0A1A447B689A613B6903F13002FC
:1036C0003B68C3F308031A447B68DA610023184699
:1036D0001837BD4680BD00BF80B586B000AF7860AA
:1036E00039607B681B68FB607B681B692033BB60AB
:1036F0007B689B69002B03D0BB68B3F5001F01D327
:103700000423A9E0BB68C3F30803002B40F09880B2
:103710007B689B695A1C7B689A617B685B69002B9C
:103720000BD1BB685B09FA6812899342C0F08880AC
:103730007B6800229A6104238EE0BB685B0AFA680A
:103740005289013A1340002B7AD17A687B685B6911
:1037500019461046FFF7C2FC78617B69012B01D83E
:10376000022379E07B69B3F1FF3F01D1012373E0CC
:10377000FB685A697B699A4258D83B68002B04D190
:103780007B6800229A61042366E07A687B685B6943
:1037900019461046FFF78CFE78617B69002B01D13A
:1037A000072359E07B69012B01D1022354E07B6997
:1037B000B3F1FF3F01D101234EE0F868FFF790FB22
:1037C0000346002B01D0012346E0FB6830334FF461
:1037D000007200211846FFF729FB00233B6179693D
:1037E000F868FFF75DFC0246FB68DA6212E0FB68EE
:1037F0000122DA70F868FFF773FB0346002B01D053
:10380000012329E03B6901333B61FB68DB6A5A1CF9
:10381000FB68DA62FB685B891A463B699A42E6D824
:10382000FB68DA6A3B69D21AFB68DA627B687A69FC
:103830005A617969F868FFF733FC02467B689A6140
:103840007B68BA681A61BB68C3F308033033FA684F
:103850001A447B68DA61002318461837BD4680BDDC
:1038600080B586B000AF786039607B681B68FB600C
:1038700000217868FFF7B4FE0346FB75FB7D002B43
:103880002BD100233B617B689B691946F868FFF7E1
:103890006BFB0346FB75FB7D002B1DD17B68DB6951
:1038A0001B78E52B04D07B68DB691B78002B07D1E4
:1038B0003B6901333B613A693B689A4202D10CE0B3
:1038C00000233B6101217868FFF706FF0346FB7583
:1038D000FB7D002BD7D000E000BFFB7D042B01D186
:1038E0000723FB75FB7D18461837BD4680BD00BF1A
:1038F00080B584B000AF786039603B681A331846F1
:10390000FFF7F4F90346FB607B681B78032B09D1B2
:103910003B6814331846FFF7E9F903461B04FA68BD
:103920001343FB60FB6818461037BD4680BD00BFDF
:1039300080B584B000AFF860B9607A60BB681A33B4
:103940007A6892B211461846FFF70AFAFB681B78AC
:10395000032B09D1BB6803F114027B681B0C9BB2DB
:1039600019461046FFF7FCF900BF1037BD4680BD71
:1039700080B586B000AF786039600423FB757B6842
:103980001B683B613CE07B689B6919463869FFF71F
:10399000EBFA0346FB75FB7D002B36D17B68DB69B8
:1039A0001B78FB73FB7B002B02D10423FB7531E0FA
:1039B0007B68DB690B331B7803F03F03BB737B68C9
:1039C000BA7B9A71FB7BE52B11D0FB7B2E2B0ED0A3
:1039D000BB7B0F2B0BD0BB7B23F02003082B0CBF32
:1039E00001230023DBB21A463B689A420FD0002124
:1039F0007868FFF771FE0346FB75FB7D002B08D14D
:103A00007B689B69002BBED104E000BF02E000BFD1
:103A100000E000BFFB7D002B02D07B6800229A6192
:103A2000FB7D18461837BD4680BD00BF80B586B007
:103A300000AF78607B681B683B6100217868FFF706
:103A4000CFFD0346FB75FB7D002B01D0FB7D3EE0E7
:103A50007B689B6919463869FFF786FA0346FB7550
:103A6000FB7D002B2FD17B68DB691B78FB73FB7B15
:103A7000002B02D10423FB7528E07B68DB690B3344
:103A80001B7803F03F03DAB27B689A717B68DB69CD
:103A90000B331B7803F00803002B0AD17B68D8692D
:103AA0007B681B6A0B221946FFF7DAF90346002BE5
:103AB0000BD000217868FFF70FFE0346FB75FB7DF6
:103AC000002BC5D002E000BF00E000BFFB7D184620
:103AD0001837BD4680BD00BF80B584B000AF7860A8
:103AE0007B681B68BB6001217868FFF7B9FE03465D
:103AF000FB73FB7B002B1CD17B689B691946B86864
:103B0000FFF732FA0346FB73FB7B002B11D17B6876
:103B1000DB69202200211846FFF788F97B68D86905
:103B20007B681B6A0B221946FFF760F9BB6801220C
:103B3000DA70FB7B18461037BD4680BD80B586B075
:103B400000AF786039603B6800225A727B689B69DD
:103B5000002B52D000233B613B697B6121E07B68F5
:103B6000DA697B69591C796113441B78FB73FB7B11
:103B7000202B00D115E0FB7B052B01D1E523FB7346
:103B80007B69092B06D13B695A1C3A613A68134498
:103B90002E225A723B695A1C3A613A681344FA7BE6
:103BA0005A727B690A2BDAD93A683B6913440933A4
:103BB00000221A707B68DB69DA7A3B681A727B68CC
:103BC000DB691C331846FFF7A9F802463B681A6008
:103BD0007B68DB6918331846FFF788F803461A46F6
:103BE0003B689A807B68DB6916331846FFF77EF8DE
:103BF00003461A463B68DA8000E000BF1837BD462E
:103C000080BD00BF80B588B000AF786039603B6888
:103C10001B68FB607B681B6ABB600B222021B868B5
:103C2000FFF704F90023FB7700233B613B697B61CD
:103C30000823BB617B695A1C7A61FA6813441B78BC
:103C4000BB77BB7F202B09D9BB7F2F2B06D0BB7F37
:103C50005C2B10D102E07B6901337B61FA687B69E0
:103C600013441B782F2BF6D0FA687B6913441B781A
:103C70005C2BF0D04DE0BB7F2E2B03D03A69BB69A3
:103C80009A420FD3BB69082B02D1BB7F2E2B01D0E8
:103C9000062373E008233B610B23BB61FB7F9B0082
:103CA000FB7735E097F91E30002B08DAFB7F43F0F5
:103CB0000303FB77BB7F803B324AD35CBB77BB7F80
:103CC00019463148FFF7F2F80346002B01D00623CE
:103CD00054E0BB7F402B07D9BB7F5A2B04D8FB7F16
:103CE00043F00203FB770CE0BB7F602B09D9BB7F5D
:103CF0007A2B06D8FB7F43F00103FB77BB7F203B89
:103D0000BB773B695A1C3A61BA681344BA7F1A7090
:103D100090E7FA687B691A443B681A60BB7F202BE6
:103D200001D8042300E00023BB773B69002B01D1BD
:103D3000062323E0BB681B78E52B02D1BB68052274
:103D40001A70BB69082B02D1FB7F9B00FB77FB7FBE
:103D500003F00303012B03D1BB7F43F01003BB77B8
:103D6000FB7F03F00C03042B03D1BB7F43F008035C
:103D7000BB77BB680B33BA7F1A7000231846203715
:103D8000BD4680BDB06B0008306C000880B586B0C1
:103D900000AF786039607B683B613B691B68FB6002
:103DA00002E03B6801333B603B681B782F2BF8D067
:103DB0003B681B785C2BF4D03B6900229A603B681F
:103DC0001B781F2B0BD87B681B6A0B3380221A7061
:103DD00000217868FFF704FC0346FB7542E03B4690
:103DE00019467868FFF70EFF0346FB75FB7D002B35
:103DF00033D17868FFF71AFE0346FB757B681B6AB0
:103E0000DB7AFB72FB7D002B0AD0FB7D042B26D1D5
:103E1000FB7A03F00403002B21D10523FB751EE080
:103E2000FB7A03F00403002B1BD13B699B7903F061
:103E30001003002B02D10523FB7513E07B681B697F
:103E4000C3F308033033FA6813441946F868FFF7E0
:103E50004FFD02463B699A60C1E700BF02E000BF28
:103E600000E000BFFB7D18461837BD4680BD00BF8F
:103E700080B487B000AF78604FF0FF333B617B6860
:103E80001B68002B31D07B681B687B6102E07B697B
:103E900001337B617B691B78202B03D97B691B78FD
:103EA0003A2BF4D17B691B783A2B1CD17B681B68B9
:103EB000FB60FB685A1CFA601B78303BBB60BB6838
:103EC000092B0ED8FA687B699A420AD1BB68002B8D
:103ED00007D1BB683B617B6901337B617B687A6991
:103EE0001A603B6902E000233B613B6918461C37BE
:103EF000BD4680BC704700BF80B582B000AF78601F
:103F000039607B680022DA707B684FF0FF32DA623A
:103F100039687868FFF728F80346002B01D004239E
:103F200028E07B6803F22E231846FEF7DFFE0346E7
:103F30001A464AF655239A4201D003231AE07B68B9
:103F400066331846FEF7EAFE034623F07F430B4A2A
:103F5000934201D100230DE07B6882331846FEF7BF
:103F6000DDFE034623F07F43044A934201D1002340
:103F700000E0022318460837BD4680BD4641540084
:103F800080B596B000AFF860B9601346FB71BB68AE
:103F900000221A60F868FFF76BFFF863FB6B002BD9
:103FA00001DA0B232BE2A84AFB6B52F82330BB63E8
:103FB000BB6B002B01D10C2321E2BB68BA6B1A60EA
:103FC000FB7923F00103FB71BB6B1B78002B1AD02C
:103FD000BB6B5B781846FEF7A5F8034687F83730C9
:103FE00097F8373003F00103002B0CD1FB79002B3D
:103FF00007D097F8373003F00403002B01D00A23D1
:10400000FDE10023FBE1BB6B00221A70FB6BDAB20F
:10401000BB6B5A70BB6B5B781846FDF799FF034684
:1040200087F8373097F8373003F00103002B01D0C1
:104030000323E4E1FB79002B07D097F8373003F036
:104040000403002B01D00A23D9E100233B65396D1D
:10405000B86BFFF751FF034687F8573097F8573092
:10406000022B4BD100233B641FE0BB6B03F13002FA
:104070003B6C1B0103F5DF7313443B633B6B043361
:104080001B78002B06D03B6B08331846FEF746FE24
:10409000024600E000223B6C9B0007F158010B44F4
:1040A00043F8442C3B6C01333B643B6C032BDCD961
:1040B00000233B643B6C002B02D03B6C013B3B6418
:1040C0003B6C9B0007F15802134453F8443C3B659A
:1040D0003B6D002B05D0396DB86BFFF70DFF034624
:1040E00000E0032387F8573097F85730012B05D9A4
:1040F0003B6C01333B643B6C032BE1D997F85730A1
:10410000042B01D101237AE197F85730012B01D913
:104110000D2374E1BB6B30330B331846FEF7E6FD1D
:104120000346B3F5007F01D00D2368E1BB6B30334C
:1041300016331846FEF7DAFD0346FB64FB6C002BD2
:1041400006D1BB6B303324331846FEF7E7FDF86425
:10415000BB6BFA6C9A61BB6B93F84020BB6B9A7097
:10416000BB6B9B78012B05D0BB6B9B78022B01D0DE
:104170000D2344E1BB6B9B781A46FB6C02FB03F3F7
:10418000FB64BB6B93F83D309AB2BB6B5A81BB6B3F
:104190005B89002B08D0BB6B5B891A46BB6B5B89C4
:1041A000013B1340002B01D00D2328E1BB6B3033C2
:1041B00011331846FEF79AFD03461A46BB6B1A8167
:1041C000BB6B1B8903F00F039BB2002B01D00D23A7
:1041D00015E1BB6B303313331846FEF787FD0346FA
:1041E000BB64BB6C002B06D1BB6B3033203318464D
:1041F000FEF794FDB864BB6B30330E331846FEF700
:1042000075FD0346FB85FB8D002B01D10D23F6E0E8
:10421000FA8DFB6C1344BA6B1289120992B21344E3
:10422000BB62BA6CBB6A9A4201D20D23E7E0BA6C5A
:10423000BB6AD31ABA6B5289B3FBF2F37B627B6A17
:10424000002B03D10D23DAE0F4080020012387F8C6
:1042500057307B6A40F6F572934202D9022387F801
:1042600057307B6A4FF6F572934202D9032387F8E1
:1042700057307B6A9A1CBB6B5A61BB6B3A6DDA6133
:10428000FA8D3B6D1A44BB6B1A623A6DBB6A1A44D5
:10429000BB6B9A6297F85730032B1ED1BB6B303340
:1042A0002A331846FEF722FD0346002B01D00D23CA
:1042B000A5E0BB6B1B89002B01D00D239FE0BB6BDE
:1042C00030332C331846FEF729FD0246BB6B5A6289
:1042D000BB6B5B699B007B641FE0BB6B1B89002B86
:1042E00001D10D238BE0BB6B1A6AFB6C1A44BB6BCC
:1042F0005A6297F85730022B03D1BB6B5B695B00A6
:104300000AE0BB6B5A6913465B0013445A08BB6B47
:104310005B6903F0010313447B64BB6B9A697B6C9C
:1043200003F2FF135B0A9A4201D20D2367E0BB6BD5
:104330004FF0FF321A61BB6B1A69BB6BDA60BB6B63
:1043400080221A7197F85730032B49D1BB6B303359
:1043500030331846FEF7CAFC0346012B40D13B6DB3
:1043600001331946B86BFEF7FFFD0346002B37D12A
:10437000BB6B00221A71BB6B303303F5FF73184619
:10438000FEF7B4FC03461A464AF655239A4227D153
:10439000BB6B30331846FEF7C1FC02461A4B9A42FB
:1043A0001ED1BB6B303303F5F2731846FEF7B6FC33
:1043B0000246164B9A4213D1BB6B303303F5F473AC
:1043C0001846FEF7ABFC0246BB6B1A61BB6B303381
:1043D00003F5F6731846FEF7A1FC0246BB6BDA60E4
:1043E000BB6B97F857201A70094B1B8801339AB2A0
:1043F000074B1A80064B1A88BB6BDA8000231846DD
:104400005837BD4680BD00BF525261417272416152
:10441000F808002080B584B000AF786039607B6810
:10442000BB607B68002B1AD0BB681B68002B16D0C2
:10443000BB681B681B78002B11D0BB681B68DA882F
:10444000BB689B889A420AD1BB681B685B78184698
:10445000FDF768FE034603F00103002B05D03B681F
:1044600000221A600923FB7305E0BB681A683B68E9
:104470001A600023FB73FB7B18461037BD4680BDD6
:1044800080B588B000AFF860B9601346FB71BB68B7
:104490003B6107F110031846FFF7EAFCF861FB697E
:1044A000002B01DA0B2328E0164AFB6952F823306F
:1044B000BB61BB69002B02D0BB6900221A70FB688C
:1044C000002B02D0FB6800221A70FA680D49FB69C4
:1044D00041F82320FB68002B02D0FB79012B01D08F
:1044E00000230AE007F10C0107F108030022184637
:1044F000FFF746FD0346FB75FB7D18462037BD469A
:1045000080BD00BFF408002080B594B000AFF86013
:10451000B9601346FB71FB68002B01D109230BE145
:10452000FB6800221A60FB7903F01F03FB71FA7924
:1045300007F11C0107F108031846FFF721FD0346A8
:1045400087F84F3097F84F30002B40F0F380FB692D
:104550003B6207F110033B64BA6807F12003114680
:104560001846FFF713FC034687F84F3097F84F3093
:10457000002B08D13B6C0B331B785BB2002B02DAAB
:10458000062387F84F30FB7903F01C03002B79D00A
:1045900097F84F30002B10D097F84F30042B07D1ED
:1045A00007F120031846FFF797FA034687F84F30C4
:1045B000FB7943F00803FB7111E097F8263003F014
:1045C0001103002B03D0072387F84F3007E0FB7956
:1045D00003F00403002B02D0082387F84F3097F82C
:1045E0004F30002B6AD1FB7903F00803002B65D014
:1045F000FDF7D0FFB864FB6B0E33B96C1846FEF7BD
:10460000C9FBFB6B1633B96C1846FEF7C3FBFB6B9B
:104610000B3320221A70FB69FA6B11461846FFF71C
:1046200067F97864FB69F96B00221846FFF780F997
:10463000FB6B1C3300211846FEF7ACFBFB69012223
:10464000DA707B6C002B39D0FB69DB6ABB6407F145
:1046500020030022796C1846FEF7C6FE034687F851
:104660004F3097F84F30002B28D1FB69B96C1846B2
:10467000FEF77AFC034687F84F30FB697A6C013A03
:10468000DA601BE097F84F30002B17D197F82630EF
:1046900003F01003002B03D0042387F84F300DE004
:1046A000FB7903F00203002B08D097F8263003F0C3
:1046B0000103002B02D0072387F84F3097F84F30C3
:1046C000002B0FD1FB7903F00803002B03D0FB79FB
:1046D00043F02003FB71FB69DA6AFB681A62FA6B2C
:1046E000FB685A6297F84F30002B23D1FB69FA6BB5
:1046F00011461846FFF7FCF80246FB689A60FB6B10
:104700001C331846FEF70AFB0246FB68DA60FB68BA
:1047100000225A74FB6800225A61FB680022DA61A9
:10472000FB68FA791A74FA69FB681A60FB69DA881F
:10473000FB689A8097F84F3018465037BD4680BDC9
:1047400080B58EB000AFF860B9607A603B60BB683E
:104750007B623B6800221A6007F114031946F8686F
:10476000FFF758FE034687F8373097F83730002BAD
:1047700007D1FB685B7C87F8373097F83730002B20
:1047800002D097F837300BE1FB681B7C03F0010384
:10479000002B01D1072303E1FB68DA68FB685B6942
:1047A000D31A3B627A683B6A9A4240F2F4803B6AD1
:1047B0007B60F0E0FB685B69C3F30803002B40F00B
:1047C000BD80FB685B695B0A7A695289013A1340D4
:1047D000FB61FB69002B23D1FB685B69002B03D1D4
:1047E000FB689B683B6307E0FA68FB689B691946B6
:1047F0001046FEF773FC38633B6B012B04D8FB6853
:1048000002225A740223CBE03B6BB3F1FF3F04D189
:10481000FB6801225A740123C2E0FB683A6B9A617B
:104820007A69FB689B6919461046FEF739FCB86146
:10483000BB69002B04D1FB6802225A740223AFE04B
:10484000BA69FB691344BB617B685B0ABB62BB6AE4
:10485000002B3BD0FA69BB6A13447A6952899342B0
:1048600005D97B695B891A46FB69D31ABB627B69F0
:104870005878BB6ADBB2BA69796AFDF767FC034610
:10488000002B04D0FB6801225A74012388E0FB68E6
:104890001B7C03F04003002B14D0FB68DA69BB6972
:1048A000D21ABB6A9A420DD2FB68DA69BB69D31A85
:1048B0005B027A6AD018FB6828334FF400721946FD
:1048C000FEF794FABB6A5B02FB6250E0FB68DA69B0
:1048D000BB699A422FD0FB681B7C03F04003002B7E
:1048E00018D07B695878FB6803F12801FB68DA6906
:1048F0000123FDF797FC0346002B04D0FB6801223F
:104900005A7401234CE0FB681B7C23F04003DAB2AD
:10491000FB681A747B695878FB6803F1280101234E
:10492000BA69FDF713FC0346002B04D0FB68012293
:104930005A74012334E0FB68BA69DA61FB685B6989
:10494000C3F30803C3F50073FB62FA6A7B689A42FB
:1049500001D97B68FB62FB685B69C3F308032833FA
:10496000FA681344FA6A1946786AFEF73FFA7A6AD7
:10497000FB6A13447B62FB685A69FB6A1A44FB6852
:104980005A613B681A68FB6A1A443B681A607A6885
:10499000FB6AD31A7B607B68002B7FF40BAF00238C
:1049A00018463837BD4680BD80B586B000AF786008
:1049B00007F1080319467868FFF72CFD0346FB75DD
:1049C000FB7D002B69D17B681B7C03F02003002B4F
:1049D00063D07B681B7C03F04003002B15D0BB68C1
:1049E00058787B6803F128017B68DA690123FDF7B9
:1049F00019FC0346002B01D001234FE07B681B7C90
:104A000023F04003DAB27B681A74FDF7C3FD386106
:104A1000BA687B681B6A19461046FEF7A5FA03467A
:104A2000FB75FB7D002B38D17B685B6AFB60FB6804
:104A30000B33FA680B32127842F02002D2B21A70AD
:104A40007B6818687B689B681A46F968FEF770FFF8
:104A5000FB6803F11C027B68DB6819461046FEF711
:104A600099F9FB68163339691846FEF793F9FB6824
:104A7000123300211846FEF773F9BB680122DA7081
:104A8000BB681846FEF79EFA0346FB757B681B7CE5
:104A900023F02003DAB27B681A74FB7D18461837BE
:104AA000BD4680BD80B584B000AF78607868FFF700
:104AB0007BFF0346FB73FB7B002B0DD107F1080343
:104AC00019467868FFF7A6FC0346FB73FB7B002BB7
:104AD00002D17B6800221A60FB7B18461037BD4666
:104AE00080BD00BF80B588B000AF7860396007F145
:104AF000080319467868FFF78DFC0346FB77FB7FB8
:104B0000002B05D17B685B7CFB77FB7F002B01D002
:104B1000FB7F10E17B68DA683B689A4208D27B68C9
:104B20001B7C03F00203002B02D17B68DB683B6037
:104B30007B685B693B6100237B617B687A695A61B2
:104B40003B68002B00F0A780BB685B895B02FB60C1
:104B50003B69002B1BD03B685A1EFB68B2FBF3F28B
:104B60003B69591EFB68B1FBF3F39A420FD33B69D3
:104B70005A1EFB685B421A407B685A617B685B691E
:104B80003A68D31A3B607B689B69BB6122E07B6813
:104B90009B68BB61BB69002B19D17B68002118465B
:104BA000FEF786FCB861BB69012B04D17B68022249
:104BB0005A740223BFE0BB69B3F1FF3F04D17B68A5
:104BC00001225A740123B6E07B68BA699A607B6857
:104BD000BA699A61BB69002B5DD03AE07B681B7CA7
:104BE00003F00203002B0BD07B68B9691846FEF76F
:104BF0005FFCB861BB69002B08D1FB683B602CE00F
:104C00007B68B9691846FEF769FAB861BB69B3F108
:104C1000FF3F04D17B6801225A7401238BE0BB69FA
:104C2000012B04D9BB685A69BB699A4204D87B68D6
:104C300002225A7402237EE07B68BA699A617B681B
:104C40005A69FB681A447B685A613A68FB68D31A50
:104C50003B603A68FB689A42C0D87B685A693B68F7
:104C60001A447B685A613B68C3F30803002B12D0D7
:104C7000BB68B9691846FEF713FA78617B69002BA7
:104C800004D17B6802225A74022354E03B685B0A19
:104C90007A6913447B617B685B69C3F30803002B6B
:104CA00037D07B68DA697B699A4232D07B681B7C9B
:104CB00003F04003002B18D0BB6858787B6803F1E1
:104CC00028017B68DA690123FDF7ACFA0346002B63
:104CD00004D07B6801225A7401232CE07B681B7C82
:104CE00023F04003DAB27B681A74BB6858787B689B
:104CF00003F1280101237A69FDF728FA0346002B06
:104D000004D07B6801225A74012314E07B687A691D
:104D1000DA617B685A697B68DB689A420AD97B68EA
:104D20005A697B68DA607B681B7C43F02003DAB247
:104D30007B681A74FB7F18462037BD4680BD00BFD4
:104D400080B588B000AF786039607B68002B01D1F6
:104D5000092351E07B68BB6107F114013B46002247
:104D60001846FFF70DF90346FB77FB7F002B3CD17C
:104D70007A69BB691A607B6807F108021A623B68AE
:104D800019467868FFF702F80346FB77FB7F002B94
:104D900026D17B681B6A0B331B785BB2002B12DBBE
:104DA000BB699B7903F01003002B0AD07A697B68FA
:104DB000DB6919461046FEF79BFD0246BB699A6007
:104DC00001E00523FB77FB7F002B09D17B69DA88A3
:104DD000BB699A8000217868FEF702FC0346FB77E6
:104DE000FB7F042B01D10523FB77FB7F002B02D037
:104DF000BB6900221A60FB7F18462037BD4680BD84
:104E000080B588B000AF7860396007F118031946A3
:104E10007868FFF7FFFA0346FB77FB7F002B2AD168
:104E20003B68002B06D100217868FEF7D9FB0346CA
:104E3000FB7720E07B6807F10C021A62002178689A
:104E4000FEF796FD0346FB77FB7F042B01D1002381
:104E5000FB77FB7F002B0ED139687868FEF76EFE7A
:104E600000217868FEF738FC0346FB77FB7F042BB4
:104E700001D10023FB77FB7F18462037BD4680BD5C
:104E800080B485B000AF786039600023FB817B6817
:104E90001B88FB81FB8903F44153FB813B681A8823
:104EA0003B685B8813439AB23B689B8813439AB272
:104EB0003B68DB8813439AB23B681B8913439AB261
:104EC0003B685B8913439AB23B689B8913439AB250
:104ED0003B68DB8913439AB2FB891343FB817B68F0
:104EE000FA891A807B689B8B9BB223F400639AB289
:104EF0007B689A833B681A8A7B681A8200BF1437E2
:104F0000BD4680BC704700BF80B483B000AF7860FE
:104F10000B46FB70FB78002B08D07B681B889BB28C
:104F200043F040039AB27B681A8007E07B681B88D5
:104F30009BB223F040039AB27B681A8000BF0C3703
:104F4000BD4680BC704700BF80B483B000AF7860BE
:104F50000B46FB70FB78002B08D07B681B889BB24C
:104F600043F400539AB27B681A8007E07B681B8881
:104F70009BB223F400539AB27B681A8000BF0C37AF
:104F8000BD4680BC704700BF80B485B000AF78607C
:104F90000023FB60344BFB607B689B79002B4FD078
:104FA0003149314B1A687B681B68DB4313400B6047
:104FB0002D492D4B5A687B681B68DB4313404B60BF
:104FC0007B681B791A46FB681344FB60FB68FA6830
:104FD00011687A6812680A431A602349224B9A685A
:104FE0007B681B68DB4313408B601F491E4BDA68EC
:104FF0007B681B68DB431340CB607B685B79102BBD
:105000000ED11949184B9A687B681B6813438B6053
:105010001549154BDA687B681B681343CB601DE0AC
:10502000114BFB607B685B791A46FB681344FB609D
:10503000FB68FA6811687A6812680A431A600DE022
:105040007B681B791A46FB681344FB60FB68FA68AF
:1050500011687A681268D2430A401A6000BF143798
:10506000BD4680BC704700BF003C014080B485B0A5
:1050700000AF78600023FB730023BB600C4B1A6801
:105080007B681340BB600A4B5A697B681340002B56
:1050900005D0BB68002B02D00123FB7301E0002385
:1050A000FB73FB7B18461437BD4680BC704700BFBE
:1050B000003C014080B483B000AF7860034A7B6855
:1050C000536100BF0C37BD4680BC7047003C0140B7
:1050D00080B483B000AF7860054A7B6843F0BF635B
:1050E00043F40033D36000BF0C37BD4680BC70472B
:1050F00000ED00E080B485B000AF78600023FB7362
:105100000023BB730F237B737B68DB78002B38D0C5
:10511000264BDB68DB4303F4E0631B0AFB73FB7B7A
:10512000C3F10403BB737A7BFB7B42FA03F37B730B
:105130007B685B781A46BB7B02FA03F3FB737B68E0
:105140009A787B7B1340DAB2FB7B1343FB73FB7BC8
:105150001B01FB73164A7B681B781344FA7B83F8A8
:105160000023134A7B681B785B09DBB218467B6817
:105170001B7803F01F03012101FA03F342F82030EA
:105180000FE00B497B681B785B09DBB218467B6834
:105190001B7803F01F0301229A4000F1200341F81D
:1051A000232000BF1437BD4680BC704700ED00E0EF
:1051B00000E100E080B483B000AF03460A46FB7113
:1051C0001346BB71BB79002B06D00949084B1A69FD
:1051D000FB7913430B6106E00549054B1A69FB791E
:1051E000DB4313400B6100BF0C37BD4680BC7047EA
:1051F00000ED00E080B485B000AF78603960002336
:10520000FB817B681B88FB817B68284A934213D013
:105210007B68274A93420FD07B68B3F1804F0BD055
:105220007B68244A934207D07B68234A934203D089
:105230007B68224A934208D1FB8923F07003FB81EB
:105240003B685A88FB891343FB817B681C4A934265
:105250000CD07B681B4A934208D0FB8923F440732F
:10526000FB813B681A89FB891343FB817B68FA89C0
:105270001A803B685A687B68DA623B681A887B68E8
:105280001A857B68094A934203D07B68084A934297
:1052900004D13B689B7A9AB27B681A867B680122AC
:1052A0009A8200BF1437BD4680BC704700000140A1
:1052B000000401400004004000080040000C0040D1
:1052C000001000400014004080B483B000AF78604C
:1052D00039607B683A685A6200BF0C37BD4680BCB3
:1052E000704700BF80B483B000AF78600B46FB709E
:1052F000FB78002B08D07B681B889BB243F001032E
:105300009AB27B681A8007E07B681B889BB223F007
:1053100001039AB27B681A8000BF0C37BD4680BC7F
:10532000704700BF80B483B000AF78600B467B80CD
:1053300013467B707B78002B08D07B689B899AB2E0
:105340007B8813439AB27B689A8109E07B689B89CA
:105350009AB27B88DB439BB213409AB27B689A81F6
:1053600000BF0C37BD4680BC704700BF80B485B01D
:1053700000AF78600B467B800023FB730023BB816A
:1053800000237B817B681B8A9AB27B881340BB8198
:105390007B689B899AB27B8813407B81BB89002BF9
:1053A00005D07B89002B02D00123FB7301E0002391
:1053B000FB73FB7B18461437BD4680BC704700BFAB
:1053C00080B483B000AF78600B467B807B88DB4382
:1053D0009AB27B681A8200BF0C37BD4680BC70470A
:1053E00080B483B000AF78600B467B807B689B887D
:1053F0009BB223F070039AB27B689A807B689B888B
:105400009AB27B8813439AB27B689A8000BF0C37AC
:10541000BD4680BC704700BF81F0004102E000BF84
:1054200083F0004330B54FEA41044FEA430594EA64
:10543000050F08BF90EA020F1FBF54EA000C55EA9F
:10544000020C7FEA645C7FEA655C00F0E2804FEA70
:105450005454D4EB5555B8BF6D420CDD2C4480EA52
:10546000020281EA030382EA000083EA010180EA82
:10547000020281EA0303362D88BF30BD11F0004FD0
:105480004FEA01314FF4801C4CEA113102D0404206
:1054900061EB410113F0004F4FEA03334CEA133341
:1054A00002D0524263EB430394EA050F00F0A78059
:1054B000A4F10104D5F1200E0DDB02FA0EFC22FA54
:1054C00005F2801841F1000103FA0EF2801843FA48
:1054D00005F359410EE0A5F120050EF1200E012A39
:1054E00003FA0EFC28BF4CF0020C43FA05F3C01877
:1054F00051EBE37101F0004507D54FF0000EDCF1F0
:10550000000C7EEB00006EEB0101B1F5801F1BD398
:10551000B1F5001F0CD349085FEA30004FEA3C0C9C
:1055200004F101044FEA445212F5800F80F09A8092
:10553000BCF1004F08BF5FEA500C50F1000041EB96
:10554000045141EA050130BD5FEA4C0C404141EB9A
:10555000010111F4801FA4F10104E9D191F0000FC1
:1055600004BF01460020B1FA81F308BF2033A3F144
:105570000B03B3F120020CDA0C3208DD02F1140C3B
:10558000C2F10C0201FA0CF021FA02F10CE002F176
:105590001402D8BFC2F1200C01FA02F120FA0CFC6F
:1055A000DCBF41EA0C019040E41AA2BF01EB0451B8
:1055B000294330BD6FEA04041F3C1CDA0C340EDCB6
:1055C00004F11404C4F1200220FA04F001FA02F3F9
:1055D00040EA030021FA04F345EA030130BDC4F1B7
:1055E0000C04C4F1200220FA02F001FA04F340EAAC
:1055F0000300294630BD21FA04F0294630BD94F05D
:10560000000F83F4801306BF81F480110134013D43
:105610004EE77FEA645C18BF7FEA655C29D094EAB4
:10562000050F08BF90EA020F05D054EA000C04BF32
:105630001946104630BD91EA030F1EBF002100201D
:1056400030BD5FEA545C05D14000494128BF41F0BC
:10565000004130BD14F580043CBF01F5801130BD20
:1056600001F0004545F0FE4141F470014FF00000AB
:1056700030BD7FEA645C1ABF194610467FEA655C5C
:105680001CBF0B46024650EA013406BF52EA0335FE
:1056900091EA030F41F4002130BD00BF90F0000FEC
:1056A00004BF0021704730B54FF4806404F1320428
:1056B0004FF000054FF0000150E700BF90F0000FE1
:1056C00004BF0021704730B54FF4806404F1320408
:1056D00010F0004548BF40424FF000013EE700BFD8
:1056E00042004FEAE2014FEA31014FEA02701FBF68
:1056F00012F07F4393F07F4F81F06051704792F03A
:10570000000F14BF93F07F4F704730B54FF46074B3
:1057100001F0004521F0004120E700BF50EA0102FE
:1057200008BF704730B54FF000050AE050EA0102AB
:1057300008BF704730B511F0004502D5404261EB1B
:1057400041014FF4806404F132045FEA915C3FF45C
:10575000DCAE4FF003025FEADC0C18BF03325FEAF5
:10576000DC0C18BF033202EBDC02C2F1200300FAAA
:1057700003FC20FA02F001FA03FE40EA0E0021FACF
:1057800002F11444C1E600BF70B54FF0FF0C4CF4B9
:10579000E06C1CEA11541DBF1CEA135594EA0C0F6F
:1057A00095EA0C0F00F0DEF82C4481EA030621EAAA
:1057B0004C5123EA4C5350EA013518BF52EA0335E5
:1057C00041F4801143F4801338D0A0FB02CE4FF097
:1057D0000005E1FB02E506F00042E0FB03E54FF0C7
:1057E0000006E1FB03569CF0000F18BF4EF0010EBF
:1057F000A4F1FF04B6F5007F64F5407404D25FEABB
:105800004E0E6D4146EB060642EAC62141EA55516D
:105810004FEAC52040EA5E504FEACE2EB4F1FD0CAF
:1058200088BFBCF5E06F1ED8BEF1004F08BF5FEA2D
:10583000500E50F1000041EB045170BD06F00046DF
:1058400046EA010140EA020081EA0301B4EB5C048C
:10585000C2BFD4EB0C0541EA045170BD41F4801184
:105860004FF0000E013C00F3AB8014F1360FDEBFA9
:10587000002001F0004170BDC4F10004203C35DA85
:105880000C341BDC04F11404C4F1200500FA05F308
:1058900020FA04F001FA05F240EA020001F00042A9
:1058A00021F0004110EBD37021FA04F642EB06011F
:1058B0005EEA430E08BF20EAD37070BDC4F10C0449
:1058C000C4F1200500FA04F320FA05F001FA04F20D
:1058D00040EA020001F0004110EBD37041F10001F9
:1058E0005EEA430E08BF20EAD37070BDC4F1200504
:1058F00000FA05F24EEA020E20FA04F301FA05F26C
:1059000043EA020321FA04F001F0004121FA04F213
:1059100020EA020000EBD3705EEA430E08BF20EAE3
:10592000D37070BD94F0000F0FD101F0004640001D
:1059300041EB010111F4801F08BF013CF7D041EA9F
:10594000060195F0000F18BF704703F000465200A3
:1059500043EB030313F4801F08BF013DF7D043EA74
:105960000603704794EA0C0F0CEA135518BF95EA2A
:105970000C0F0CD050EA410618BF52EA4306D1D1B1
:1059800081EA030101F000414FF0000070BD50EAD0
:10599000410606BF1046194652EA430619D094EA5A
:1059A0000C0F02D150EA013613D195EA0C0F05D144
:1059B00052EA03361CBF104619460AD181EA030198
:1059C00001F0004141F0FE4141F470014FF0000050
:1059D00070BD41F0FE4141F4780170BD70B54FF0EB
:1059E000FF0C4CF4E06C1CEA11541DBF1CEA13556B
:1059F00094EA0C0F95EA0C0F00F0A7F8A4EB05044D
:105A000081EA030E52EA03354FEA013100F0888043
:105A10004FEA03334FF0805545EA131343EA12630C
:105A20004FEA022245EA111545EA10654FEA0026C1
:105A30000EF000419D4208BF964244F1FD0404F57A
:105A4000407402D25B084FEA3202B61A65EB0305D6
:105A50005B084FEA32024FF480104FF4002CB6EB93
:105A6000020E75EB030E22BFB61A754640EA0C0013
:105A70005B084FEA3202B6EB020E75EB030E22BF53
:105A8000B61A754640EA5C005B084FEA3202B6EB94
:105A9000020E75EB030E22BFB61A754640EA9C0053
:105AA0005B084FEA3202B6EB020E75EB030E22BF23
:105AB000B61A754640EADC0055EA060E18D04FEAE1
:105AC000051545EA16754FEA06164FEAC30343EA81
:105AD00052734FEAC2025FEA1C1CC0D111F4801F4E
