:020000040800F2
:100000004008002069020008C5020008C502000877
:10001000C5020008C5020008C50200080000000073
:10002000000000000000000000000000C502000801
:10003000C502000800000000C5020008C502000853
:10004000C5020008C5020008C5020008C502000874
:10005000C5020008C5020008C5020008C502000864
:10006000C5020008C5020008C5020008C502000854
:10007000C5020008C5020008C5020008C502000844
:10008000C5020008C5020008C5020008C502000834
:10009000C5020008C5020008C5020008C502000824
:1000A000C5020008C5020008C5020008C502000814
:1000B000C502000881090008590B0008C5020008A4
:1000C000C5020008C5020008C5020008C5020008F4
:1000D000C5020008C5020008C5020008C5020008E4
:1000E000C5020008C5020008C5020008C5020008D4
:1000F000C5020008C5020008C5020008C5020008C4
:10010000C5020008C5020008C5020008C5020008B3
:10011000C5020008C5020008C5020008C5020008A3
:10012000C5020008C5020008C5020008C502000893
:10013000C5020008C5020008C5020008C502000883
:10014000C5020008C5020008C5020008C502000873
:10015000C5020008C5020008C5020008C502000863
:10016000C5020008C5020008C5020008C502000853
:10017000C5020008C5020008C5020008C502000843
:10018000C5020008C502000880B485B000AF7860E1
:1001900039600023FB600023BB60134B1B68FB60CE
:1001A00040F6FE727B6802FA03F3DB43FA68134001
:1001B000FB603B681A683B685B681A433B689B6856
:1001C0001A433B68DB681343BB60BA687B6802FA7A
:1001D00003F3FA681343FB60034AFB68136000BF34
:1001E0001437BD4680BC70470074004080B483B0B3
:1001F00000AF78600B46FB70FB78002B09D00C49F0
:100200000B4B1A6801207B6800FA03F313430B6061
:1002100009E00749064B1A6801207B6800FA03F3DE
:10022000DB4313400B6000BF0C37BD4680BC7047FA
:100230000074004080B485B000AF78600B467B80CE
:100240000023FB60074BFB60FA687B6813440833AC
:10025000FB60FB681A467B88136000BF1437BD46FD
:1002600080BC70470074004080B582B000AF104B76
:100270007B60104B3B6007E03B681A1D3A607A6870
:10028000111D796012681A603B680B4A9342F3D3E0
:100290000A480B494FF000028842B8BF40F8042BCF
:1002A000FADB00F0A9F800BF0837BD4680BD00BFEB
:1002B00004020D08000000200C0000200C000020AB
:1002C0004000002080B400AFFEE700BF80B582B0E0
:1002D00000AF786039604FF4FE41464800F020FFDF
:1002E0003B68042B07D1F021424800F027FF402152
:1002F000404800F015FF3B68032B07D1F0213D4833
:1003000000F01CFF20213B4800F00AFF3B68022B55
:1003100007D1F021374800F011FF1021354800F0D7
:10032000FFFE3B68012B07D1F021324800F006FFA9
:100330008021304800F0F4FE7B68002B05D14FF49B
:100340007C512C4800F0FAFE4FE07B68012B05D170
:100350004FF4C061274800F0F1FE46E07B68022BB5
:1003600005D14FF4B641234800F0E8FE3DE07B683C
:10037000032B05D14FF49E411E4800F0DFFE34E010
:100380007B68042B05D14FF4CC411A4800F0D6FE0F
:100390002BE07B68052B05D14FF4DA41154800F0BE
:1003A000CDFE22E07B68062B05D14FF4FA411148BF
:1003B00000F0C4FE19E07B68072B05D14FF4E06123
:1003C0000C4800F0BBFE10E07B68082B05D14FF411
:1003D000FE41084800F0B2FE07E07B68092B04D11B
:1003E0004FF4DE41034800F0A9FE00BF0837BD46C8
:1003F00080BD00BF0010024080B59AB000AF00F091
:10040000F3FE0121012000F0F1FB0121022000F0A8
:10041000EDFB0121042000F0E9FB0121082000F0A0
:10042000E5FB0121102000F0E1FB01214FF4807079
:1004300000F018FC01214FF0005000F0F5FB012105
:10044000022000F0F1FB0121042000F0EDFB01216E
:100450004FF4804000F0E8FB4FF470433B6601230B
:1004600087F86430002387F86630032387F8653007
:10047000002387F8673007F160031946C44800F08D
:10048000A7FD4FF470733B66002387F864300023A8
:1004900087F86630032387F86530022387F86730D2
:1004A00007F160031946BA4800F092FD47F6F07371
:1004B0003B66012387F86430002387F86630032306
:1004C00087F86530002387F8673007F16003194625
:1004D000B04800F07DFD02233B66032387F86430BB
:1004E000002387F8673007F160031946AA4800F037
:1004F0006FFD10233B66032387F86430032387F8DE
:100500006530002387F8673007F160031946A24879
:1005100000F05EFD4FF460433B66022387F86430D1
:10052000022387F8653007F1600319469B4800F005
:100530004FFD05220D21994800F00EFE05220E21E7
:10054000964800F009FE05220F21944800F004FEB1
:1005500000233B6500237B650023BB650023FB650F
:1005600007F15003184600F0EFFB0023BB630023A4
:1005700087F83C30012387F83D3000237B6400235B
:100580003B640023BB64012387F84C3007F1380338
:100590001946834800F084FB04230122012180488E
:1005A00000F016FC01217E4800F0F6FB0023BB6240
:1005B0000023FB6200233B6300237B6307F12803D6
:1005C00019460020FFF7E0FD01210020FFF70EFE95
:1005D00000210020FFF72EFE0023BB8200233B8377
:1005E00000237B830023BB834FF40073FB833823FA
:1005F0003B8400237B840723BB844FF48273FB82FC
:1006000007F114031946674800F096FE012165487A
:1006100000F0D6FE1823FB60D1233B8100233B82F0
:1006200000237B8107F1080319465F4800F048FF6B
:100630001D233B7100237B710023BB710123FB71E0
:100640003B1D184600F0DCFE0121574801F03CF844
:1006500001220121544800F0BDFF42F20F73FB60FC
:1006600042F2CF033B8100233B8200237B8107F1D1
:10067000080319464D4800F023FF1E233B71002359
:100680007B710023BB710123FB713B1D184600F0F9
:10069000B7FE0121454801F017F801220121434826
:1006A00000F098FF0121404800F074FF01213F480D
:1006B00000F070FF4FF48041354800F031FD4FF4F9
:1006C000FE41344800F03AFD354800F04BFC00BFD5
:1006D0000221334800F062FC0346002BF8D030487A
:1006E00000F050FC0346184601F0B4F80246304BC7
:1006F0001A602F4B1B682F49184601F003F9034677
:100700004FF08B41184601F0B1F903461A462A4BC7
:100710001A602A4B1B6804211846FFF7D7FD284BA7
:100720001B6803211846FFF7D1FD264B1B680221E9
:100730001846FFF7CBFD244B1B6801211846FFF735
:10074000C5FD4021124800F0D1FC0346002B6BD0C0
:100750004FF400410E4800F0E3FC1C4B1B68002BDB
:100760003AD11A4B01221A60194B00221A60134B1E
:1007700000221A60124B00221A60124B00221A60EB
:10078000114B00221A60134B00221A6039E000BF9F
:10079000000C024000100240000002400004024031
:1007A00000200140003800400004004000080040E4
:1007B0003C0000200000A040340000201400002075
:1007C000180000201C000020200000202400002031
:1007D0000C000020280000205C4B00221A605C4BBB
:1007E00000221A605B4B00221A605B4B00221A60E9
:1007F0005A4B00221A605A4B00221A60594B0022B1
:100800001A60594B00221A6004E0574B1B680133F1
:10081000554A1360544B1B68544A9342F5DD4FF41C
:100820000041534800F08AFC8021514800F05EFCF2
:100830000346002B18D04F4B1B68002B14D14FF4EC
:1008400080514B4800F07AFC4FF48041484800F05A
:1008500067FC0121484800F09DFE0121474800F057
:1008600099FE444B01221A604FF48071404800F019
:100870003DFC0346002B18D03E4B1B68012B14D1C6
:1008800000213D4800F086FE00213C4800F082FE39
:100890004FF48041364800F051FC4FF48051344809
:1008A00000F03EFC334B00221A604FF400713048D8
:1008B00000F01CFC0346002B3FF406AF4FF4005140
:1008C0002B4800F02DFC214B1B68002B15D11F4B32
:1008D00001221A601E4B00221A601E4B00221A6071
:1008E0001D4B00221A601D4B00221A601C4B002277
:1008F0001A601C4B00221A6014E0144B00221A608C
:10090000134B00221A60134B00221A60124B002274
:100910001A60124B00221A60114B00221A60114B10
:1009200000221A60104B00221A6004E00E4B1B6874
:1009300001330D4A13600C4B1B680C4A9342F5DDE2
:100940004FF400510A4800F0F9FBBDE624000020F6
:100950000C00002014000020180000201C000020C3
:100960002000002028000020300000207E8D5B0049
:10097000000C02400000002000040040000800407D
:1009800098B500AF0121664800F074FE0346002BC5
:1009900000F0C480634B1B68002B1FD1614B1B68A8
:1009A000614A52F823301A46604B1B689A4234D28F
:1009B0005C4B01221A605D4B00221A605C4B0022E6
:1009C0001A605C4B00221A605B4B00221A605B4B82
:1009D00000221A605A4B00221A601EE0514B1B681D
:1009E000514A52F823301A46504B1B689A4214D28F
:1009F0004C4B00221A604D4B00221A604C4B0022D7
:100A00001A604C4B00221A604B4B00221A604B4B71
:100A100000221A604A4B00221A60424B1B68002BCE
:100A20003ED1484B1B684849184601F027F9034658
:100A3000002B0ED03D4B1B68444AD35C9BB21A4638
:100A4000920013449B009BB219460020FFF7F2FB73
:100A50001CE0364B1B683D4AD35C184600F0FEFE96
:100A60000446384B1B683A49184600F0FFFF03461E
:100A70001946204600F046FF0346184601F008F9E3
:100A800003469BB219460020FFF7D4FB274B1B6897
:100A90000133264A13600121214800F015FE3DE094
:100AA000284B1B682849184601F0E8F80346002B3C
:100AB0000ED01E4B1B68274AD35C9BB21A4692008D
:100AC00013449B009BB219460020FFF7B3FB1CE0C8
:100AD000164B1B681F4AD35C184600F0BFFE044645
:100AE000184B1B681A49184600F0C0FF0346194608
:100AF000204600F007FF0346184601F0C9F80346F8
:100B00009BB219460020FFF795FB084B1B68013389
:100B1000064A13600121024800F0D6FD00BF98BDCF
:100B20000004004024000020040000200C000020ED
:100B300014000020180000201C00002020000020CD
:100B4000280000203C0000200000FA44D01C0008CF
:100B50000000C842CC37070880B500AF01211E480D
:100B600000F05CFD0346002B33D001211A4800F051
:100B700071FD1A4B1B680133184A1360174B1B6831
:100B80000A2B26D1154B00221A60154B1B68013326
:100B9000134A1360124B1B68052B1AD9104B002205
:100BA0001A60104B1B6801330E4A13600D4B1B6813
:100BB000092B0ED90B4B00221A600B4B1B6801331B
:100BC000094A1360084B1B68092B02D9064B002207
:100BD0001A6000BF80BD00BF000800401400002064
:100BE000180000201C0000202000002080B483B0EA
:100BF00000AF78600B46FB70FB78002B06D00949EC
:100C0000084B1A6B7B6813430B6306E00549054BE1
:100C10001A6B7B68DB4313400B6300BF0C37BD4688
:100C200080BC70470038024080B483B000AF786069
:100C30000B46FB70FB78002B06D00949084B1A6C59
:100C40007B6813430B6406E00549054B1A6C7B680F
:100C5000DB4313400B6400BF0C37BD4680BC7047BC
:100C60000038024080B483B000AF78600B46FB7060
:100C7000FB78002B06D00949084B5A6C7B6813435C
:100C80004B6406E00549054B5A6C7B68DB43134017
:100C90004B6400BF0C37BD4680BC70470038024033
:100CA00080B485B000AF786039600023FB6000231A
:100CB000FB727B685B68FB60FB6823F0407323F486
:100CC0008073FB603B681B791A023B681B68134307
:100CD000FA681343FB607B68FA685A607B689B681C
:100CE000FB60FA68174B1340FB603B681A693B686E
:100CF000DB681A433B689B681A433B685B795B007F
:100D00001343FA681343FB607B68FA689A607B6858
:100D1000DB6AFB60FB6823F47003FB603B681B7DB0
:100D2000013BDAB2FB7A1343FB72FB7A1B05FA68CC
:100D30001343FB607B68FA68DA6200BF1437BD4674
:100D400080BC7047FDF7FFC080B485B000AF78600D
:100D50000023FB600E4B5B68FB60FA680D4B134091
:100D6000FB607B681A687B685B681A437B689B68DA
:100D70001A437B68DB681343FA681343FB60044A39
:100D8000FB68536000BF1437BD4680BC704700BF8E
:100D900000230140E030FCFF80B483B000AF7860F6
:100DA0000B46FB70FB78002B06D07B689B6843F0FA
:100DB00001027B689A6005E07B689B6823F0010272
:100DC0007B689A6000BF0C37BD4680BC704700BF8F
:100DD00080B485B000AF7860084611461A460346D5
:100DE000FB700B46BB7013467B700023FB60002337
:100DF000BB60FB78092B23D97B68DB68FB60FB7841
:100E0000A3F10A0213465B001344072202FA03F31C
:100E1000BB60BB68DB43FA681340FB607978FB7802
:100E2000A3F10A0213465B00134401FA03F3BB600B
:100E3000FA68BB681343FB607B68FA68DA601EE0FF
:100E40007B681B69FB60FA7813465B00134407223A
:100E500002FA03F3BB60BB68DB43FA681340FB6034
:100E60007978FA7813465B00134401FA03F3BB6008
:100E7000FA68BB681343FB607B68FA681A61BB7849
:100E8000062B21D87B685B6BFB60BB785A1E134630
:100E90009B0013441F2202FA03F3BB60BB68DB43D1
:100EA000FA681340FB60F978BB785A1E13469B0022
:100EB000134401FA03F3BB60FA68BB681343FB6099
:100EC0007B68FA685A6347E0BB780C2B21D87B68B3
:100ED0001B6BFB60BB78DA1F13469B0013441F2279
:100EE00002FA03F3BB60BB68DB43FA681340FB60A4
:100EF000F978BB78DA1F13469B00134401FA03F319
:100F0000BB60FA68BB681343FB607B68FA681A63CE
:100F100022E07B68DB6AFB60BB78A3F10D0213461D
:100F20009B0013441F2202FA03F3BB60BB68DB4340
:100F3000FA681340FB60F978BB78A3F10D02134601
:100F40009B00134401FA03F3BB60FA68BB681343C8
:100F5000FB607B68FA68DA6200BF1437BD4680BC6C
:100F6000704700BF80B483B000AF78607B689B6837
:100F700043F080427B689A6000BF0C37BD4680BC5E
:100F8000704700BF80B483B000AF78607B68DB6CD3
:100F90009BB218460C37BD4680BC704780B485B004
:100FA00000AF78600B46FB700023FB737B681A6808
:100FB000FB781340002B02D00123FB7301E00023D8
:100FC000FB73FB7B18461437BD4680BC704700BFDF
:100FD00080B487B000AF7860396000237B61002364
:100FE0003B610023FB6000237B6176E001227B698B
:100FF00002FA03F33B613B681A683B691340FB60EC
:10100000FA683B699A4265D17B681A687B695B0024
:10101000032101FA03F3DB431A407B681A607B6803
:101020001A683B681B7919467B695B0001FA03F378
:101030001A437B681A603B681B79012B03D03B681D
:101040001B79022B2ED17B689A687B695B00032198
:1010500001FA03F3DB431A407B689A607B689A6865
:101060003B685B7919467B695B0001FA03F31A431D
:101070007B689A607B685A687B699BB2194601233A
:101080008B40DB431A407B685A607B685B683A6838
:10109000927911467A6992B201FA02F292B21A4337
:1010A0007B685A607B68DA687B699BB25B000321CE
:1010B00001FA03F3DB431A407B68DA607B68DA6885
:1010C0003B68DB7919467B695B0001FA03F31A433D
:1010D0007B68DA607B6901337B617B690F2B85D983
:1010E00000BF1C37BD4680BC704700BF80B485B0D0
:1010F00000AF78600B467B800023FB737B681A6926
:101100007B881340002B02D00123FB7301E00023F6
:10111000FB73FB7B18461437BD4680BC704700BF8D
:1011200080B483B000AF78600B467B807B687A88A0
:101130001A8300BF0C37BD4680BC704780B483B0B3
:1011400000AF78600B467B807B687A885A8300BF4B
:101150000C37BD4680BC704780B485B000AF786066
:101160000B467B8013467B700023FB600023BB6033
:101170007A787B8803F007039B0002FA03F3FB6095
:101180007B88DB089BB218467B88DB089BB21A463B
:101190007B68083253F822207B8803F007039B000A
:1011A0000F2101FA03F3DB4302EA03017B6800F13C
:1011B000080243F822107B88DB089BB21A467B6842
:1011C000083253F82220FB681343BB607B88DB089E
:1011D0009BB21A467B680832B96843F8221000BFF8
:1011E0001437BD4680BC704780B500AF124A124B21
:1011F0001B6843F0010313600F4B00229A600E4AF4
:101200000D4B1B6823F0847323F4803313600A4B67
:101210000A4A5A60084A084B1B6823F4802313606B
:10122000054B0022DA6000F00DF8054B4FF000622C
:101230009A6000BF80BD00BF00380240103000241B
:1012400000ED00E080B483B000AF00237B6000239A
:101250003B60354A344B1B6843F480331360324B98
:101260001B6803F400333B607B6801337B603B68A1
:10127000002B03D17B68B3F5A06FF0D12A4B1B681C
:1012800003F40033002B02D001233B6001E0002374
:101290003B603B68012B42D1234A234B1B6C43F03C
:1012A00080531364214A214B1B6843F4804313602D
:1012B0001D4A1D4B9B6893601B4A1B4B9B6843F464
:1012C00000439360184A184B9B6843F4A053936003
:1012D000154B174A5A60144A134B1B6843F080732E
:1012E000136000BF104B1B6803F00073002BF9D094
:1012F000104B40F205621A600B4A0B4B9B6823F0BF
:1013000003039360084A084B9B6843F00203936011
:1013100000BF054B9B6803F00C03082BF9D100BFFD
:101320000C37BD4680BC704700380240007000405A
:1013300008544007003C024080B485B000AF78609C
:1013400039600023FB817B681B88FB81FB8903F4E8
:101350004153FB813B681A883B685B8813439AB210
:101360003B689B8813439AB23B68DB8813439AB26D
:101370003B681B8913439AB23B685B8913439AB25B
:101380003B689B8913439AB23B68DB8913439AB24B
:10139000FB891343FB817B68FA891A807B689B8BEE
:1013A0009BB223F400639AB27B689A833B681A8AE3
:1013B0007B681A8200BF1437BD4680BC704700BFEF
:1013C00080B483B000AF78600B46FB70FB78002BD5
:1013D00008D07B681B889BB243F040039AB27B68BD
:1013E0001A8007E07B681B889BB223F040039AB207
:1013F0007B681A8000BF0C37BD4680BC704700BFB9
:1014000080B485B000AF78600023FB730023BB730A
:101410000F237B737B68DB78002B38D0264BDB688F
:10142000DB4303F4E0631B0AFB73FB7BC3F10403A0
:10143000BB737A7BFB7B42FA03F37B737B685B783D
:101440001A46BB7B02FA03F3FB737B689A787B7BBB
:101450001340DAB2FB7B1343FB73FB7B1B01FB7373
:10146000164A7B681B781344FA7B83F80023134ADF
:101470007B681B785B09DBB218467B681B7803F03E
:101480001F03012101FA03F342F820300FE00B495A
:101490007B681B785B09DBB218467B681B7803F01E
:1014A0001F0301229A4000F1200341F8232000BFCE
:1014B0001437BD4680BC704700ED00E000E100E05D
:1014C00080B485B000AF786039600023FB817B6811
:1014D0001B88FB817B68284A934213D07B68274A8C
:1014E00093420FD07B68B3F1804F0BD07B68244AC6
:1014F000934207D07B68234A934203D07B68224AF9
:10150000934208D1FB8923F07003FB813B685A8822
:10151000FB891343FB817B681C4A93420CD07B6898
:101520001B4A934208D0FB8923F44073FB813B683C
:101530001A89FB891343FB817B68FA891A803B680F
:101540005A687B68DA623B681A887B681A857B6810
:10155000094A934203D07B68084A934204D13B680E
:101560009B7A9AB27B681A867B6801229A8200BFB6
:101570001437BD4680BC70470000014000040140A4
:101580000004004000080040000C00400010004033
:101590000014004080B483B000AF78600B46FB704D
:1015A000FB78002B08D07B681B889BB243F00103BB
:1015B0009AB27B681A8007E07B681B889BB223F095
:1015C00001039AB27B681A8000BF0C37BD4680BC0D
:1015D000704700BF80B483B000AF78600B467B805B
:1015E00013467B707B78002B08D07B689B899AB26E
:1015F0007B8813439AB27B689A8109E07B689B8958
:101600009AB27B88DB439BB213409AB27B689A8183
:1016100000BF0C37BD4680BC704700BF80B485B0AA
:1016200000AF78600B467B800023FB737B681B8ACE
:101630009AB27B8813409BB2002B02D00123FB732C
:1016400001E00023FB73FB7B18461437BD4680BCCA
:10165000704700BF80B483B000AF78600B467B80DA
:101660007B88DB439AB27B681A8200BF0C37BD4689
:1016700080BC704780B485B000AF78600B467B803B
:101680000023FB730023BB8100237B817B681B8AC3
:101690009AB27B881340BB817B689B899AB27B8816
:1016A00013407B81BB89002B05D07B89002B02D0A6
:1016B0000123FB7301E00023FB73FB7B1846143707
:1016C000BD4680BC704700BF80B483B000AF786077
:1016D0000B467B807B88DB439AB27B681A8200BF13
:1016E0000C37BD4680BC704780F0004002E000BF70
:1016F00081F0004142001FBF5FEA410392EA030FFD
:101700007FEA226C7FEA236C6AD04FEA1262D2EB46
:101710001363C1BFD218414048404140B8BF5B424B
:10172000192B88BF704710F0004F40F4000020F0E4
:101730007F4018BF404211F0004F41F4000121F0FA
:101740007F4118BF494292EA030F3FD0A2F1010244
:1017500041FA03FC10EB0C00C3F1200301FA03F182
:1017600000F0004302D5494260EB4000B0F5000FA5
:1017700013D3B0F1807F06D340084FEA310102F164
:101780000102FE2A51D2B1F1004F40EBC25008BF16
:1017900020F0010040EA03007047490040EB0000E0
:1017A00010F4000FA2F10102EDD1B0FA80FCACF10F
:1017B000080CB2EB0C0200FA0CF0AABF00EBC2500E
:1017C00052421843BCBFD0401843704792F0000FFC
:1017D00081F4000106BF80F400000132013BB5E74F
:1017E0004FEA41037FEA226C18BF7FEA236C21D0C5
:1017F00092EA030F04D092F0000F08BF084670472A
:1018000090EA010F1CBF0020704712F07F4F04D1F7
:10181000400028BF40F00040704712F100723CBF0A
:1018200000F50000704700F0004343F0FE4040F434
:10183000000070477FEA226216BF08467FEA2363F2
:101840000146420206BF5FEA412390EA010F40F4DD
:10185000800070474FF0000304E000BF10F0004329
:1018600048BF40425FEA000C08BF704743F0964310
:1018700001464FF000001CE050EA010208BF70472B
:101880004FF000030AE000BF50EA010208BF7047B2
:1018900011F0004302D5404261EB41015FEA010CC7
:1018A00002BF84460146002043F0B64308BFA3F1BF
:1018B0008053A3F50003BCFA8CF2083AA3EBC253A1
:1018C00010DB01FA02FC634400FA02FCC2F12002C0
:1018D000BCF1004F20FA02F243EB020008BF20F0F7
:1018E0000100704702F1200201FA02FCC2F120025D
:1018F00050EA4C0021FA02F243EB020008BF20EA52
:10190000DC7070474FF0FF0C1CEAD0521EBF1CEA7F
:10191000D15392EA0C0F93EA0C0F6FD01A4480EA6D
:10192000010C400218BF5FEA41211ED04FF0006356
:1019300043EA501043EA5111A0FB01310CF0004082
:10194000B1F5000F3EBF490041EAD3715B0040EAA8
:10195000010062F17F02FD2A1DD8B3F1004F40EB78
:10196000C25008BF20F00100704790F0000F0CF04B
:10197000004C08BF49024CEA502040EA51207F3A0F
:10198000C2BFD2F1FF0340EAC250704740F40000EA
:101990004FF00003013A5DDC12F1190FDCBF00F0DB
:1019A00000407047C2F10002410021FA02F1C2F189
:1019B000200200FA02FC5FEA310040F1000053EA25
:1019C0004C0308BF20EADC70704792F0000F00F073
:1019D000004C02BF400010F4000F013AF9D040EA79
:1019E0000C0093F0000F01F0004C02BF490011F40D
:1019F000000F013BF9D041EA0C018FE70CEAD1530B
:101A000092EA0C0F18BF93EA0C0F0AD030F0004C8A
:101A100018BF31F0004CD8D180EA010000F000403E
:101A2000704790F0000F17BF90F0004F084691F0FC
:101A3000000F91F0004F14D092EA0C0F01D1420236
:101A40000FD193EA0C0F03D14B0218BF084608D1FF
:101A500080EA010000F0004040F0FE4040F4000049
:101A6000704740F0FE4040F4400070474FF0FF0CDC
:101A70001CEAD0521EBF1CEAD15392EA0C0F93EA23
:101A80000C0F69D0A2EB030280EA010C49024FEA75
:101A9000402037D04FF0805343EA111143EA10132E
:101AA0000CF000408B4238BF5B0042F17D024FF4E6
:101AB000000C8B4224BF5B1A40EA0C00B3EB510FC1
:101AC00024BFA3EB510340EA5C00B3EB910F24BFAA
:101AD000A3EB910340EA9C00B3EBD10F24BFA3EB2F
:101AE000D10340EADC001B0118BF5FEA1C1CE0D1F7
:101AF000FD2A3FF650AF8B4240EBC25008BF20F0AA
:101B0000010070470CF0004C4CEA50207F32C2BFFD
:101B1000D2F1FF0340EAC250704740F400004FF09A
:101B20000003013A37E792F0000F00F0004C02BFCB
:101B3000400010F4000F013AF9D040EA0C0093F095
:101B4000000F01F0004C02BF490011F4000F013BEF
:101B5000F9D041EA0C0195E70CEAD15392EA0C0F57
:101B600008D142027FF47DAF93EA0C0F7FF470AF8F
:101B7000084676E793EA0C0F04D14B023FF44CAFD2
:101B800008466EE730F0004C18BF31F0004CCAD167
:101B900030F000427FF45CAF31F000437FF43CAFA3
:101BA0005FE700BF4FF0FF3C06E000BF4FF0010CC5
:101BB00002E000BF4FF0010C4DF804CD4FEA4002A7
:101BC0004FEA41037FEA226C18BF7FEA236C11D0F1
:101BD00001B052EA530C18BF90EA010F58BFB2EBA4
:101BE000030088BFC81738BF6FEAE17018BF40F024
:101BF000010070477FEA226C02D15FEA402C05D1D8
:101C00007FEA236CE4D15FEA412CE1D05DF8040B5C
:101C1000704700BF844608466146FFE70FB5FFF7EF
:101C2000C9FF002848BF10F1000F0FBD4DF808EDA7
:101C3000FFF7F4FF0CBF012000205DF808FB00BF98
:101C40004DF808EDFFF7EAFF34BF012000205DF8F2
:101C500008FB00BF4DF808EDFFF7E0FF94BF01203F
:101C600000205DF808FB00BF4DF808EDFFF7D2FF3C
:101C700094BF012000205DF808FB00BF4DF808ED7F
:101C8000FFF7C8FF34BF012000205DF808FB00BF4C
:101C900042000ED2B2F1FE4F0BD34FF09E03B3EBD6
:101CA000126209D44FEA002343F0004323FA02F002
:101CB00070474FF00000704712F1610F01D14202EE
:101CC00002D14FF0FF3070474FF00000704700BF67
:101CD00052494646F21A070057415645666D742030
:101CE0001000000001000200401F0000803E0000C4
:101CF0000200080064617461CE1A07008080808051
:101D00008080808080808080807F8080807F8080D5
:101D10007F7F80807F7F8080807F7F80807F8080CA
:101D20007F7F80807F7F80807F7F808080807F7FBB
:101D30008080807F80807F7F80807F808080807FA8
:101D40007F80807F7F808080808080807F80808097
:101D50007F80808080807F7F80807F7F8080807F89
:101D60008080807F80807F7F808080807F7F808078
:101D70007F7F7F8080807F7F80807F80807F7F806B
:101D8000807F7F80807F8080807F8080807F7F8059
:101D9000807F7F80807F80807F8080807F80808048
:101DA0007F80807F7F80807F7F80807F7F8080803A
:101DB0007F8080807F808080807F80807F7F808028
:101DC0007F7F807F80807F7F80807F7F80807F7F1C
:101DD0007F8080807F80807F7F80807F7F80807F0A
:101DE00080807F7F808080807F7F80807F7F8080F9
:101DF0008080807F7F80807F7F8080807F7F8080E9
:101E000080807F7F8080807F80807F8080807F7FD8
:101E10008080807F7F80807F808080807F7F8080C7
:101E20007F7F80807F7F8080807F7F80807F8080B9
:101E3000807F7F8080807F7F80807F7F80807F80A9
:101E4000808080807F7F80807F7F80807F7F808098
:101E50007F7F808080807F80808080807F80808086
:101E600080807F7F808080807F7F80807F7F808078
:101E70007F7F80807F7F807F80807F80807F7F806A
:101E8000807F7F808080807F7F80807F8080808057
:101E900080807F80808080807F7F80807F7F808047
:101EA0007F80807F7F8080807F7F80807F7F808039
:101EB000807F8080807F7F80807F8080807F808027
:101EC0007F7F80807F80807F7F8080807F80808018
:101ED0007F7F80807F7F80807F80807F80807F7F0A
:101EE00080807F7F80807F7F8080807F7F7F8080F9
:101EF0007F7F8080807F808080808080807F7F80E7
:101F0000807F7F80807F80807F80807F7F808080D7
:101F10007F7F8080807F7F80807F7F80807F7F80C9
:101F2000807F8080807F7F8080807F7F80807F7FB8
:101F30008080807F7F80807F80807F7F80807F7FA8
:101F40008080807F7F80807F7F80807F80807F7F98
:101F500080807F80807F80807F7F80807F7F808087
:101F6000807F7F80807F80807F7F8080807F7F8078
:101F7000807F7F8080807F7F8080807F7F80808067
:101F80007F7F8080807F7F80808080807F7F808057
:101F90007F7F8080807F7F80807F80807F7F808048
:101FA0007F7F80807F80807F7F80807F7F80808038
:101FB0007F7F7F80807F7F80807F80807F80807F29
:101FC0007F8080807F8080807F80807F7F80807F17
:101FD0007F80807F7F80807F80807F80807F7F8008
:101FE000807F7F8080807F7F80807F7F80807F80F8
:101FF00080807F7F80807F7F80807F80807F8080E7
:10200000807F80807F8080807F8080807F7F8080D5
:10201000807F8080807F7F80807F7F8080808080C5
:102020007F8080807F7F80807F7F80807F7F8080B7
:102030007F7F80807F80807F7F80807F80807F7FA8
:1020400080807F7F808080807F7F80807F7F808096
:102050007F7F80807F7F80807F7F80807F7F808088
:102060007F7F808080807F7F80807F7F80807F8077
:102070007F7F80807F7F80807F7F808080807F8067
:1020800080807F7F807F7F80807F7F80807F7F8058
:10209000807F7F8080807F7F80807F7F8080807F47
:1020A0007F80807F8080807F80807F80807F7F8036
:1020B000807F808080807F7F80807F7F80807F8026
:1020C000807F80808080807F8080807F8080807F14
:1020D0007F80807F7F8080807F7F80808080807F06
:1020E00080807F80807F80807F7F80807F80807FF6
:1020F0007F80807F7F80807F80807F7F80807F7FE8
:1021000080807F7F80807F80807F80807F80807FD5
:1021100080807F7F80807F7F80807F7F8080807FC6
:102120007F808080807F7F8080807F80807F7F80B5
:10213000807F80807F7F80807F7F807F7F807F7FA8
:102140008080807F7F80807F7F80807F80807F7F96
:1021500080807F7F8080807F7F8080807F80807F85
:1021600080807F7F80807F7F80807F808080807F75
:102170007F80807F7F80807F80807F80807F7F8066
:10218000807F7F808080807F7F80807F7F80807F56
:102190007F80808080807F7F80807F7F8080807F45
:1021A0008080807F7F80807F80807F7F80807F7F36
:1021B000807F7F80807F7F7F80807F7F80807F7F28
:1021C00080807F7F80807F7F807F7F7F7F7F808018
:1021D0007F80808080808080808080808080808000
:1021E0008080808080808080808080807F7F7F7FF3
:1021F0007F7F7F7F7F7F7F807F7F7F8080807F7FEB
:102200007F7F80807F7F7F7F80807F7F7F7F7F7FDA
:102210007F7F7F7F7F8080807F7F808080807F7FC7
:102220007F7F7F7F7F7F7F7F7F7F7F7F7F7F7F7FBE
:102230007F7F7F7F7F7F7F7F80807F7F7F7F7F7FAC
:102240007F7F7F7F807F7F7F7F7F7F7F7F7F7F7F9D
:102250007F7F7F7F7F8080807F7F7F7F8080808087
:10226000808080807F7F8080808080807F7F7F8073
:1022700080808080807F808080808080808080805F
:102280008080808080807F7F808080807F7F7F7F54
:102290008080808080807F7F7F7F80807F80808043
:1022A000808080807F7F80807F7F80808080808032
:1022B00080808080807F807F80807F7F80807F7F24
:1022C0007F7F7F7F7F7F8080807F7F7F7F7F7F7F1B
:1022D0007F7F808080807F807F7F7F7F7F7F808007
:1022E0007F7F7F7F80808080808080807F7F8080F4
:1022F000808080807F7F807F7F7F7F7F7F7F7F80E8
:1023000080807F7F80808080808080807F7F7F7FD3
:1023100080807F7F7F7F7F7F7F7F808080807F80C6
:1023200080807F7F80808080808080807F7F7F7FB3
:102330007F8080807F7F7F7F808080807F7F7F7FA6
:102340007F7F80808080808080807F7F7F7F7F7F95
:102350007F7F80807F7F8080808080808080808081
:102360007F7F808080807F7F7F7F7F7F7F7F808077
:1023700080808080808080807F7F7F7F7F7F7F7F65
:102380007F7F8080808080807F7F7F7F7F7F808055
:102390007F7F7F7F80808080808080807F7F7F7F45
:1023A000808080807F7F7F7F7F8080808080807F33
:1023B0007F7F808080807F7F80807F7F8080808023
:1023C000808080807F7F7F7F7F7F7F7F7F7F808017
:1023D00080808080807F7F7F7F7F7F7F7F80808005
:1023E0008080808080807F7F7F7F807F7F7F7F80F5
:1023F00080807F7F80807F7F7F7F807F7F7F7F7FE8
:102400007F7F7F7F808080807F7F80807F7F8080D4
:1024100080807F7F7F7F7F7F7F7F808080808080C4
:1024200080807F7F7F7F7F7F7F7F808080808080B4
:10243000808080807F7F807F7F7F7F7F80808080A3
:10244000808080807F7F7F80808080807F7F808091
:1024500080807F8080808080808080807F7F80807F
:10246000808080808081808080807F7F7F7F7F7F71
:1024700080808080808080807F7F80807F7F7E7E64
:102480007F7F7F7F80808181808080807F7F7E7E54
:102490007E7E7F7F7F7F808080807F7F7F7F7F7F4A
:1024A0007F7F80807F7F7F7F808080807F7F7F7F36
:1024B0007F7F7F7F80808080808080807F7F7F7F24
:1024C0007F7F7F7F7F7F80808080808080807F7F14
:1024D0007F7F7F7F7F7F80808181818180807F7F00
:1024E0007F7F7E7E80808080808080807F7F7F7FF6
:1024F0007F7F7F7F808080808080808080807F7FE2
:1025000080807F7F7F8080807F7F808080807F7FD2
:10251000807F80808080808080807F7F80807F7FC0
:102520007F7F80807F7F7F7F7F7F7F7F80808080B5
:102530007F7F7F7F7F7F7F7F7F7F808080808080A5
:102540007F7F7F7F7F7F7F7F7F8080807F7F808096
:1025500080807F7F7F7F7F7F7F7F8181818180807F
:1025600080807E7E7E7E80808080818180807F7F73
:102570007F7F7F7F7F7F808080807F7F7F7F7F7F67
:102580007F7F81818080808080807F7F7F7F7F7F51
:102590007F7F808080807F7F7F7F7E7E7F7F808146
:1025A00080808080807F7E7E7F7F7F7F8080808034
:1025B00080807F7F7F7F80807F7F7F7F7F7F7F7F27
:1025C00081818181818180807F7F7E7E7E7E7F7F11
:1025D00080808181807F808080807F7E7F7F7F7F01
:1025E0008080818180807F7F7F7F7F7F7E7E7F7FF5
:1025F00080807F7F80807F7F7F7F7F7F80808080E3
:10260000808080807F7F7F7F7F7F7F7F80807F7ED5
:102610007F7F807F7F7F80808080818180807F7FBF
:102620007E7E7F7F7F7F7F7F808080807F7F807FB7
:102630007F7E808080808081818080807F7F7F7F9F
:102640007F7F7F7F80808080807F80807F7F7F8092
:10265000808080808080808080807F7F7F807F7F7F
:10266000808080807F7F8080807F7F7F80807F7F71
:1026700080808080807F7F7F7F7F7F7F7F7F808063
:102680007F7F7F7F7F7F80807F7F80808080808052
:102690007F7F7F7F7F7F80808080808080807F7F42
:1026A0007F7F7F7F7F7F8080808080807F7F7F7F34
:1026B0007F7F7F7F7F7F80807F807F7F7F7F7F7F27
:1026C0007F7F80807F7F80807F7F7F7F80807F7F14
:1026D0007F7F80808080808080807F7F7F7F7F7F02
:1026E0007F7F808080808080808080807F7F8080EE
:1026F00080807F7F7F7F7F7F7F7F808080818080E1
:1027000080807F7F7F7F7F7F7F7F80808181807FD0
:10271000807F7F7E7E7E80808080818180807F7FC1
:102720007F7F7F808080808080807F7F7F7F7F7FB2
:102730007F7F80808081808080807F7F7F7F7F7FA0
:1027400080808080808080807F7F7F7F7F7F7F7F91
:102750008080808081818080807F7F7F7F7F7F7F7E
:1027600080808080808080807F7F7F7F7F7F7F8070
:102770008080808080807F7F7F7F7F7F7F7F7F8062
:1027800080807F8080807F7F7F7F8080808080804E
:1027900080807F7F7F7F7F7F7F7F80807F7F7F7F45
:1027A0007F807F7F7F7F8080808080808080807F2F
:1027B0007F7F7F7F7F7F8080808080807F7F7F7F23
:1027C0007F7F80808080808080807F7F7F7F7F7F11
:1027D0007F7F7F7F808080807F7F80807F7F808001
:1027E00080807F7F7F7F7F80808080808181807FED
:1027F0007F7F7E7E7D7D7F80818181818282807FDF
:102800007E7E7E7E7E7E80808181818180807F7FD2
:102810007E7D7E7E7F7F80808181818180808080BF
:102820007F7E7F7F7F7F8080808080807F807F7FB2
:102830007F7F7F7F807F808080808080808180809C
:102840007F7F7F7F7F7F7F7F7F8080808080808091
:1028500080807F7F7F7F7F7F7F7F8080818180807E
:10286000807F7F7F7E7E7E7E7F7F80808181818171
:1028700081817F807F7F7E7E7E7E7F7F8080818161
:10288000818180807F7F7F7E7E7F7F7F7F7F807F53
:102890008181818180807F7F7E7E7F7F7F7F80803E
:1028A0007F8081817F7F808080807F7F807F7E7E30
:1028B0008181807F7F7F7E7D7F80838381807E7D1D
:1028C0007C7B7F7F8182848480807F7F7D7C7E7F14
:1028D00080807C7C82848585807E7E7E81827E7DF8
:1028E00079787A7A7E7F83858788878784848080D9
:1028F0007E7C7A797878797A7C7C7E7F8283848406
:102900008282838383838282808181807F7F7C7CBB
:102910007C7C7D7B7B7B7B7B7B7A7C7C7F7F8080F0
:10292000828484848282828382828384838382817C
:1029300082828282828280817F7F7E7E7F807E7E95
:102940007D7C7C7C7A7A7C7C7C7C7D7E7F7F7F7FBB
:102950007F7F7E7E7E7E7E7D838382828181818178
:1029600082838383828384848384818180807F7F48
:102970007E7E80807D7D7C7C7D7D818281807E7E6F
:102980007F7E7D7D7D7C7F7E8180807F80807E7E5E
:102990007E7F7D7D7F7F8180818281807E7E7E7D46
:1029A0007E7E81818181828384858384828281820B
:1029B000818181818181828383837F807F7F7F7F0B
:1029C0007F7F7D7D7D7D7D7C7C7C7D7C7D7D7E7D36
:1029D0007D7D7F7E7E7E7E7E7D7C7E7E7E7D7D7C1F
:1029E0007D7C7D7D80807F7F7D7D7C7C80828282FE
:1029F00084868485818282828180808185858484A9
:102A00008485868681817E7E7B7B7D7D8180807FC3
:102A10007C7C7B7A79787A7A7B7B7D7D7F7E7D7DFD
:102A20007E7D7F7F81818384868686868788848475
:102A30008182818183838586858481817E7F7D7C7F
:102A40007D7D7F7F7F7F7F807E7E7D7D7E7F7E7FA1
:102A50007E7E818080807E7E7D7D7B7A7B7B7E7F9B
:102A6000808081828181808081817F7F7F7F7F7F65
:102A70007E7E80807F7F7D7D7F7F80808383848357
:102A8000818180818080808082828483838382822E
:102A90008080818283838383848480807E7E7C7C2B
:102AA0007E7E7E7E7E7E7E7D7B7A7B7C7978797968
:102AB0007C7C7F7E7D7D7F7E7F7E7F7F7F7F7E7D36
:102AC00080808282838381818181808082838383ED
:102AD0008282808182827E7E7C7D7C7C7F7F8383FC
:102AE0008483838380807F7F7F7F828283828181D2
:102AF0007E7E7F7F81818484848382827F7E7B7AD5
:102B000079797B7B7C7C7B7B7E7E7D7E7D7E7C7D04
:102B10007D7D7D7E7F7F7C7D7E7E7D7D7F7F8081D4
:102B2000818181828080807F7D7D7D7C7A797D7DC1
:102B30007F7F82817E7E7C7C7A7A7D7D82818483A8
:102B40008483818180808282878787888787848544
:102B500080807F7F828283838585828280807E7E63
:102B60007E7E7F7F818180807C7C7C7C7E7F828278
:102B700083838383807F7E7E7C7B7A7A7A7A7C7B78
:102B80007E7E7F7F7E7E797A7979777879797B7B93
:102B90007B7B7A7B7A7A7A7B7D7E8182828282825B
:102BA000807F7D7E7E7E7E7E81818585878885850E
:102BB000838382827F7F8180808081818282838201
:102BC00083838483848585848585828281818182D3
:102BD000858485858484838381817F807E7E7E7FDA
:102BE0007D7D7D7D7A797A7B7D7C7D7D7E7D7B7B25
:102BF0007B7B7A7A7B7B7C7C7E7D7E7F80807E7E09
:102C00007B7C7B7B7E7E80808383807F7D7E7B7AE6
:102C10007D7D80808484858584858483818185848D
:102C20008584878886868888848483838382858553
:102C30008786878785848181807F80808686868657
:102C4000848480817F7F7F7F82828382848482826A
:102C50007F7F7A7A797978777C7C7E7E7C7E7A7ABF
:102C60007676797879797D7D7C7C7B7C78777878CD
:102C700078777B7B7D7D7E7F7D7D7A7A79787879A8
:102C80007B7B7D7E7F807E7F7D7C7C7C7E7E80806A
:102C90008485848483827E7E7D7E80808484878711
:102CA00088888686848483828081828283838484E8
:102CB00085858483838486868586848684848281D0
:102CC0007D7D7F7F808084868786868683838180E2
:102CD0007E7D7C7D807F7F7F8282817F80817F7F00
:102CE0007F7F7E7E807F7D7B7978787778797E7D27
:102CF0008180838381807F7E7C7A7B797A797C7BFB
:102D00007D7C7E7F7F7E7E7F7E7E7D7B7A797B7AF7
:102D10007978777779787A7B7E7F818180807E7CF5
:102D20007B7A79787A797A7A7A7B7D7E7F818080E6
:102D300080817E7E7E7D7E7D7E7E7C7B7B7C7C7DBD
:102D40007F80838383848383818180807F7D7E7E77
:102D50007E7F818384858788878786878483818037
:102D6000828080808081808181828385868787863A
:102D700086868583828182818080807F8081828433
:102D800085868786868685848381807F7D7C7C7D21
:102D90007D7E7F81838383838282807F7E7C7C7A39
:102DA0007977777777787A7B7D7E7F8080807E7D6C
:102DB0007E7C7A777776757475767776797B7C7D8D
:102DC0007E7F807F7C7A7A79797879787978797A58
:102DD0007A7B7D7F80818181807F7E7E7D7B7C7B15
:102DE0007B7B7D7D7E7F80828485858685868281D2
:102DF00081807E7E7E7F81808484868787888989A2
:102E0000888887878787858584848283838485856E
:102E100086878A8B8A8B8B8B86858385828281834A
:102E20008484848587878787878784838282838455
:102E300081817E7F7E7E7D7E80808180848483838D
:102E400081827F7D797A7979797A7C7D7E7E8081B5
:102E500080817F7E80807D7D7B7D7F7F7C7C7B7C95
:102E600079797A7B7E7D8180838281827F7E7A7987
:102E70007A7A7A7A7B7B807F807F8080807F7E7D7C
:102E80007F7E7F7E7E7E7E7D7D7C7C7B7E7E818163
:102E900081818382838381817F807D7D7F7F80802C
:102EA000818282828282818180818081818282820C
:102EB00081817E7E7D7D7E7E80808384828382820E
:102EC0007E7E7C7C7B7B7D7E7D7D80807E7E7E7E2B
:102ED0007E7E7E7E80817F7F80807E7E7C7C7B7B11
:102EE0007C7C7D7E81807F7F7F7F7E7D7E7E7C7C03
:102EF0007C7D7C7B7C7C7E7D7D7D7D7D7D7D808001
:102F00007F7F807F7D7D7D7D7B7B7B7C7C7C7F7FED
:102F10007F7E7F7E7D7C7B7C7E7D7D7E81807E7DD5
:102F2000807F7D7C7D7E7E7F7F80818281818080AD
:102F3000818180818082828281828382808080817F
:102F4000808183848183838485858382807F7E8062
:102F50008082818383848383848484848283848540
:102F6000848583838383828181818282838586872E
:102F700085858685828181807F7E7F808182838333
:102F800084838180807E7E7F80808081807F7E7D43
:102F90007D7B7A797D7C7C7D7F7F7E7D7D7D7B796D
:102FA0007777797777777B7B7A7A7E7C7C7C7C7B82
:102FB0007C7C7C7B7C7B7B7D7B7A7A7979787B7A65
:102FC0007C7C7E7E80807D7E7E7D797979797A7A3F
:102FD0007C7D7E7D808081817F7F80807F807F7F00
:102FE0007E7F7C7C7E7D7F7E7E7D838484858788DA
:102FF00086868282807F7F7E7F80828387878787A5
:1030000089898B898787888987898887858483834D
:103010008584868688898B8C8C8B8A8A8988878729
:10302000848482848484858587868787888886854A
:1030300086878384838381808080807F8081828271
:1030400083848484838483827F7E7C7C79797A7B89
:103050007B7A7D7F7E7C7E7D7E7E7C7D7C7C797AAA
:103060007878767675737575787979797D7D7C7BDE
:103070007B7B7876757673737273737374757A7AF3
:103080007B7A7B7B7A7A78787776777774747676C2
:10309000767578797B7A7D7F807E7D7E7E7E79797C
:1030A0007B7B7A7A79797A797B7B7D7D7F7F808162
:1030B000808180807E7F7E7D7D7E7D7C7D7D818127
:1030C00082828484848384858382828283848181D2
:1030D00084858686888889888B8B8C8B8B8B8A8A63
:1030E0008687878684848685868689898A8B8B8C69
:1030F0008A8A898988868586858383848584848471
:103100008786868688898687868683838182808073
:103110008182807F81818281828385838183818096
:103120007F7F7E7E7C7C7C7D7B7C7D7E7E7E8081C5
:10313000807F7F7F7E7D7A7A7877767677777879E9
:103140007B7C7B7C7B7D7C7B7A797B7A78777675E0
:10315000737373747474767679787A7A7B7B797A00
:103160007877767576767675797877767A7B7979E9
:103170007A7A7B79797A7C7A79787B7B7A7A7B7BAD
:103180007C7D808081818282817E7E7E7D7D7D7D51
:103190007C7B7E80807F808083828282828282822A
:1031A0008283838382827F7F8181807F83848788FB
:1031B00087888889878885858585868686858989A3
:1031C000888887888C8D8B8C8B8C8C8B8B8B8A8959
:1031D00088878585868888888B8C8D8E8B8B8B8B5A
:1031E000888787878686868586878788848484857E
:1031F000868687868485858482818182818180809C
:103200008282807F8382828283827F7F7E7E7D7CBA
:103210007E7E7F7E7F7F7E7E7E7D7E7D7D7E7F7FCC
:103220007E7E7F7E7C7C7A797676767778787979FF
:103230007B7B7A7B79787676747573737374767525
:10324000757574747372737374757777777777772E
:10325000757573737171747575767776777879791A
:1032600077767777787777777878777778797879E6
:103270007A7978787B7C7C7B7D7D7C7B7B7C7B7B9F
:103280007B7B7D7D7E7F8281828282827F7E7F804A
:103290008080808080808383828183848282838413
:1032A00086868687898885858484818182838585D1
:1032B000898B8C8A898B8A8A888787878889878681
:1032C0008788898988898A8A888888898889898A73
:1032D0008989888985848485878786878B8B8A8A74
:1032E000898989898685848585878685848484847F
:1032F0008382848384858585858585858282818195
:103300007F7D7D7D7F7F7E7F818181808181807EC9
:103310007D7C7C7C7B7B7E7D7D7B7B7A7C7B7C7BF0
:103320007D7D7F7F7E7E7E7D7A78777675737575FD
:1033300078777B7A7F7E7F7D7D7C787778777574F0
:1033400076777877787878767877777678787A7904
:10335000797A7A78767476757372747577777C7CFF
:103360007E7C7E7C7C7A78787A7A7B7A7A7A7C7CAE
:103370007C7C7C7B7E7D7C7C8081828281817F7E67
:103380007C7C7C7B7C7B7D7E81828486858584833E
:10339000828280807F808081818181808081818024
:1033A00083818282848686868587848481828180E7
:1033B00080808384868688888687878786858485BB
:1033C00084858586848484858484858588868988A7
:1033D000898A888989888484838282828384868892
:1033E0008989888885878686868686858585858578
:1033F0008485828181818282848486858686848593
:10340000848581817D7D7D7D7E7E818283828382B4
:103410007F7F7E7F7E7E7E7D7E7E7D7D7C7C7C7CD4
:103420007B7B7A7A7C7D807E7E7D7D7E7A7B7776E3
:1034300074737374757578797B7B7B7B7978777718
:103440007A7A79797A7A797877767473747475730D
:1034500078787C7C7D7D7D7C7676757471717272F6
:10346000757578787979797B797878787A797979D6
:103470007A7A787876767674767678787C7C7F80BF
:103480008282827F7B7A787A78797A7B7C7C7E8074
:10349000828281818181828183838182838683820A
:1034A00080807F7D7E7F828385878A8B8B8B8A8AD3
:1034B00086848282808080828384858686878585D3
:1034C00086878687868787898788858582828080A8
:1034D00080818587888A8B8D8C8C8989868581817E
:1034E000818280818487858686878686858789888C
:1034F000878A888A84858483807F7F7E7D7D8082A1
:10350000848787898887838483817E7D7D7D7D7D97
:103510007E7E7E7E7E7E7D7E7E7F828382838583AD
:1035200082807E7D7978777777767A7A7F7F8283DB
:10353000848682827F7D79767775757475777877E2
:1035400078787B7A7C7A7E7E7E7F80817D7C7A79BA
:103550007572717072707475797A7E7E8081807FE9
:103560007D7C7977777776747575767577767A7AE4
:103570007D7E818384838281807F7C7A7876757575
:1035800077777A7A7F7F8181838485848383828140
:103590007F7E7C7C7B7A7A7A7A797C7D8080888950
:1035A0008A898989858580807D7D7C7B7E7E7F7E02
:1035B0008282868588898C8C8A8B8A8B8786828298
:1035C000817F7C7D7F7F828487878D8D908F8F8E9A
:1035D0008D8D8686838481818181858383838585A2
:1035E0008686888A8A8B8D8E8987848482827E7F74
:1035F00080807E7F85868887878787878586848386
:103600007F817D7D7D7E7E7E807E818182828485BC
:103610008585838682827D7C797876767877797ADB
:103620007F8083827F7F81807D7F7B7C7A7B7C7BB8
:1036300078767878767477767A7B7D8083848181DA
:1036400081807C7C79777675757473727C7E7D7DE4
:103650007C7D7D7D787A7877747171717471747204
:10366000767577777A797B7D7D8081807E7B7776B2
:103670007473767374727674787A7F80817E8282B6
:10368000818180817F7C797A7C7C7B79797979787A
:103690007B7B7C7C7C7C818082807F7D7E7E7D7E4E
:1036A000797A7F8086878B8C8D898B8A89868382C5
:1036B00080817D7C7C7C7F7F838784858585888BEA
:1036C0008A8A89878582807E7F7F7D7C7F808387D1
:1036D0008A8B8B8D8B8B8A8A888A88868486848461
:1036E000818283827E7E7F817D7C81828386878AC0
:1036F000888783847F817D7E81807F7F84838482AD
:10370000848783817E807E817E7F828481817F7FAA
:103710007F7E8181828283838787858785837E7E82
:103720007D7E7E7F7E7F828385858583858584827D
:10373000807D7C7A7B7D7D7F7F807E7F7C7C7D7DB4
:103740007E7E7F807F827F7D7F807E7C78767879A9
:10375000797C7B7E7D7C7E7E7F7D7D7D7D797878AA
:1037600079787877797875727473757374737979F9
:10377000797A807D7A7879787774757475757A7BC3
:103780007D7E7F8083807B7A7C7975747A777C7D7F
:103790007D817B7A7B7A7B7A7B7D7F7D7D7D7E7F61
:1037A0007C797C7B79797879797A7C7D7D7C7D7D6B
:1037B0007E7E7C7B7A7C797A7B7B7D7B7D7D808342
:1037C00080817E80828486878487888688878281BC
:1037D0008181807E8080808084858C8B8B8C8A8B9D
:1037E0008B898888848283848481858789898A8C6F
:1037F0008D8D8A8C8B8B898C8B8C8A898A8D8C8B16
:10380000858784848A89878687888987828381815E
:10381000838286858686878787878686878586864C
:1038200086848686807F7F807E7D82828081818281
:103830008788898A898B858584847F7E7D7E7E7C4E
:103840007F808382868585858586858480807F804C
:103850007E7C81817E7C7D7D7D7B7D7E827F82837F
:1038600081827F807F7F7C7E7E7D7878767774739F
:10387000797A7F807F7F7D7B7A7C7877787877779D
:10388000777A7776757677757777797676757878CB
:1038900075747777727075767271747678777679D9
:1038A0007C7C77777877757578777777787978779C
:1038B00077797D7F7D7D7B7B777878787B7C7C7D5D
:1038C0007C7C77777575787577787A7A7B7C7D7C68
:1038D0007B7B79797A7879797977797C7E7E807F3C
:1038E000807E7F7E7E7B7D7D8083848587888280CD
:1038F00082807F7D818384848080858686868A8895
:103900008583858787888888888987878987817E56
:103910008383838387888C8F8C8D8E8F8787878A1C
:10392000868687898786878A8C8C86878686838128
:103930007F80818286888887868888868382848241
:10394000817F82818385818382817F7F81817E7E69
:1039500082838383868787878686827F7E7F818630
:1039600085868789838483848482818080807D7D2D
:1039700082828080838684817D807F807D7F838139
:10398000817E8686818081827F7F7E7E7F7E7C7E37
:103990007E7F7F8081807E7E7B7B7B7877737B7C64
:1039A0007C7B7C7D7E7C7A7A808179787B7B767665
:1039B000767471717677777476767D7D7F7F858179
:1039C000807E7C7C797A79777878797A7F7E807F3F
:1039D0007F818282818186847E7D7B79787576770E
:1039E00077787C7D7C7A7C8084827D7E80827F7DFE
:1039F0007C7A78757473757678757475787A828147
:103A00008382818180807A7B79797875797A7B79F4
:103A10007D7F8385838284848687848379797C7C97
:103A20007C7D8081838184868988898A8685848655
:103A300086858281808080817F8181818385848564
:103A400086888586888888898A8A868688867E7D13
:103A50007A7D7B7B7D80807F82848787898B8C8C3D
:103A60007F8081827A7A7B7C7C7B7E807D7E7F8179
:103A700081808182868687888989868882818486FA
:103A800085847F81848482848988858689888584E9
:103A9000878882807E8284827E827F7D7C80828213
:103AA000808285848586878784848282807F7E7EEB
:103AB0007C7C7D7D7B7A808284838688807E7F810A
:103AC0007D7A797C7C7975777F7D79797B7B777658
:103AD0007E7F7C7A7A7D7A7875777572737474726A
:103AE00076757A797D7C807E8080807F7C7B81800A
:103AF0007A7B81807978797879777F80817D7F8002
:103B0000827F8082837F797A7B7C76757777767601
:103B1000797B7C7A7F7F7D7C80807D7A7A7B7979E6
:103B20007574737373737877777A7C7C7D7D858603
:103B300084858384807F797B797A7C7D7976787BB4
:103B40007C7B8485868786868D8E8887898A7F7D23
:103B5000787B7B7A7D7D7D7C81838888898B8E8F45
:103B6000898A87898384838580827F818083848515
:103B70008181858B878585878688848784837E80FD
:103B8000808077797F807A7881858684868985832D
:103B90007C7D7E7F7D7E7E7D7F8181838283888622
:103BA000848788898788898A848585867E7E7F82C6
:103BB0007C7A777C817F7F808B89878686898482E7
:103BC00082838384817F81817D7D7E7F82838182E8
:103BD0008282808282837F7E7E817E7E7A7C7B79F8
:103BE0007575787B7E7B80828586828383827977F8
:103BF000787A797574737575727175747273787873
:103C00007C7C807F7D7D8485807D7A7A787A7573EF
:103C100077777D7F807F828487837D7E83848383A3
:103C200082817B7C7D7E7E7D7E7C7C7B7E7D807EBA
:103C30007F7C8181817F8382807F7A7775757774BD
:103C400078787B7A79787E7E808080818383818298
:103C50008485828280807F7F7E7C7A797A79818375
:103C600082818886888988898584828281807E8015
:103C700083837F7E80808281838387878D8C868704
:103C80008C908886868A8583818382827F7F8385E4
:103C900081828A8C86868D8E8787848784868182BE
:103CA00080828181848683868786878786858587CB
:103CB00088878685868682827F7D77767D827F80F3
:103CC00081848787858686888587858785828280A7
:103CD0007A787A7879797574777878787B7A7B7E58
:103CE0007D7E7A7876757875717178797874797A5D
:103CF0007F7E7F7F7E7F80848385838283817876C9
:103D000077787C7A7A7B7977777573747F807E7C1D
:103D10007E7F7D7D7B7C807D77777877737077770A
:103D200074717577787678787F7B7B797D7C7B7C06
:103D30007D7B7C7C7D80807D7E7E8081858682838C
:103D4000868985848082837F818083828281858841
:103D50007E7D817F7F808284848282848586828347
:103D60008585808186878586848683868488858804
:103D70008B8E8B8B8E8D8C8A818382827B7A7E7DEB
:103D80007B797D7D7E8183838487868884827D7C28
:103D90007D7C7C7D807D7B79797A7C7F7C7D818355
:103DA00085888787888A8687838282837E7A7876E9
:103DB0007D7C7D7F808383848487818183858484E7
:103DC0007F7E7A797D7A7D7C7E7E7F7F7D7E858613
:103DD00084888889878A84847A797A7972707475FC
:103DE0007C7A7D7D86878587898A87868486848399
:103DF0007E7C797776747573737072737475787866
:103E0000787A76787D7E7C7A7A7A7978747373732F
:103E1000727277797F808487898C8A8C888A87867A
:103E2000818282807E7D7C7A787678797C7A7D7ECC
:103E300081808484858482807F7E7B7778767673A8
:103E40007776747578787B7D8282828382828384A0
:103E500080807F7C77787C7B7B7D7E7F7D8082838A
:103E600085868588888983857F7E7E7E807F7C7D30
:103E700084848485848386868485838487878886F2
:103E8000888686868283818281827F8082828586FF
:103E9000878A8C8E9193908F8E8E86857F8180808D
:103EA000797A7B7D7B7C7F83858586898A898688F4
:103EB00087887B7C7E7F7D7A7A7C7D7B797D83821F
:103EC00083868A8986878A8C8889888C82807C7E92
:103ED0007E7B787A7E7E7F8085858888888A8484C8
:103EE000828483837E7E7A7A7C7C7B7D82808381E0
:103EF0008481838281808383818281807C7D7676C8
:103F0000777B79797B7C7B7B7D7F83827E7D8383DE
:103F1000807C7E7D7D7B7A7C7B7877777774706E12
:103F200072716F6C7274777575757A7877797A7A41
:103F30007A7978797775787A7A7A808084828181C3
:103F40008280807F7D7E7E7E7E7D80807E7B767996
:103F50007A79787679797677777A7B79787C7C79D3
:103F60007E7D7B79777779777A787B7C7B7A7C7CAE
:103F70007A787A7A7978787478767C7D807E807F9A
:103F8000818080818080807D7E7E7E7D838482832F
:103F90008484888A87878B8D8785858687888484B3
:103FA00084858384848683838385848586878889C2
:103FB0008D8F8E8F8C8E8B8B8B8E8A88888888894C
:103FC0008684898B88878689858785868384848291
:103FD000838180808080817D7C7E7F81837F8080E3
:103FE0008688878A8B8D8B8B8789898983807F7F61
:103FF0008080828282807F828484808080838080AF
:104000007F7F7E7C7E7F7B7A797779787A7C8181ED
:104010007F7E7F8281807D7C7F7E817E7E7D7F7FB3
:104020007B777B7B817D7D7B7D7E7C7C7C7D7D7CCD
:104030007C7C7A777A7A797675777A7876737977FD
:104040007574747475737678767377757A75767619
:1040500077787676797A7A7B7A787C7D83848585A1
:104060008788848082807E797A797D7B7F81818157
:104070007C7C7F807D7D7F83828281828383848339
:1040800084827E7C7D7D7F7E7E7E81838382818231
:1040900080807D7F80817E7D7E7F7D7F8484828223
:1040A00082858686808084868182838486818384DB
:1040B00084858281838987898889848381838385B4
:1040C0008280858883818082837F7F8183858483CA
:1040D0008587838384847F7F7F82838480818282BB
:1040E000807E7F7F80807F7F7B807C7D82828686D2
:1040F0008887858482807E7D7C7C7B7C7F7D8082BE
:104100008383807F7E80848584838887858882807E
:104110008083817F7C7B8180817E7D7D7F817E7EAF
:104120007E7C80807E7B7D807C797573797B7E7ED2
:104130007F8281878686807D8284817F7E7D7F7C71
:104140007B7C807E7C7B80827F817E7D7D7A7C7E95
:1041500080807D7E83858484828081837F7E7F7F53
:1041600082807D7C7C7E7F7F7B7C7B787B7C7B7789
:104170007A7A7B7B7C7E7F807E7E7A7E7C7C7F8071
:10418000848387878583807E7D807D7E7C797E7F2A
:10419000828482827E7C7E7E828382838483838407
:1041A000828382808282817F7E7F7F7F7C7B7F8112
:1041B0007E7E7C7C7A787A7A7B7A7675747675776F
:1041C0007A7A7B7B818384847F7E82827C7B7B7C0A
:1041D0007E7E7D7D7E7C7E7F8787858482827E7DDC
:1041E000808384837F808485848381817E7C7A7CC4
:1041F00080807F7F807F7E7D7C7E7C7A78787B7CF0
:104200007A797C7D7C7C7C7E808080807F807F7ED4
:104210007F7F8281848483817C7C828283827F8091
:104220008382838483827E7E7E817E7F807F838380
:104230008384868783827E7E7E7F8080837E7C7E71
:104240007E807D7A7B7C7A7A7F82837F7C7B7D8097
:104250007F80807F7E7E808380807F7D7D7E808268
:10426000807E817F838584818282868783847F7F2D
:104270007D7B7D8184848383878784858484848314
:104280007F817E7E7E7B7D7E7D7E7B7C7978797A68
:104290007D7D7F7E808080807B7C7E7E80807F7F36
:1042A0007F80808184858381838483808183817EF4
:1042B0007C7E8385807F81827F7E828085848286EA
:1042C00084838484858380828484818583838281BE
:1042D00080807D7A7B7C7D7B7F7E7E7F7C7B7B7C10
:1042E0007A797B7B797D7F7E8183827F7F818280EB
:1042F0007E7E7E8083838483848588898581808295
:1043000082817E7D807E7F8081807E7D7B7B7A7BCB
:104310007D7E8081818482837F7F7E807D7F7F819F
:104320007F7E7F7E8181817F7F7E7D7A8080848297
:10433000818084837E7E7A7B797B7D7F7D7D7D829B
:1043400083857C787B797D7B807F8183858488836E
:104350008384818480828587828182848384808330
:10436000858684847D7F7A7C79757B787C787C7C7B
:104370007F7E7772797476757779818387887E7C82
:104380007D82868A858A85867B7F78787C807F7C23
:104390007B798A8B7F7C808196907F7B75768A8BF8
:1043A0008685737379767D83777877797C7B84844F
:1043B0008D8E8E8D8987807E7A7B726F7273706B23
:1043C0006D7075777E8188888E8F8E9190938E9197
:1043D0008584868584847E807D797F7D746E737507
:1043E0007B7678767A777D7D81817E7F85878382F3
:1043F00082887F7F7F837D7D7F808888878989878A
:1044000085867F7B7B7D827E78787776706D71750F
:10441000767478787D7C828687867E7F7C787B7ECA
:104420007F7F7D7B7D7B7E7F8484848289898C8D68
:104430008D8D8888898A858481878684868885850C
:104440007F818485838383817F7E7D7E75736F6E9C
:10445000706F706D777375787E807E7D7B767B7EE6
:104460007E8285867D7B8081787B7C7C7F83898949
:10447000908F8A8892968E8E8A8B7E7C817F807FB9
:104480007B7C7F807B76767576768286807D7F8169
:10449000787473767577737779767677797A7678B4
:1044A000818384828B8C8B888689807D7A7D817BD9
:1044B0007E7F7E7D787B84817E7D85848D8E8C8ED3
:1044C000888782867E7A78797C7D7E82807A777909
:1044D00077788080808085858886868586897B79C7
:1044E0007B7B78777D7E7E7D8385817E7F818386E1
:1044F000868692908A8A8D9084837C7B77757E8174
:104500007D7A80818584818285848182898C818085
:104510008584777574797774727278787A7D827D04
:1045200078778184817E8080808080847A766E71C5
:1045300076736C6C787975778385868486878885B1
:104540007F838C888383888882857D7B7A7780824D
:1045500085838E8F8C8A8A8E8B8984888C898181D1
:1045600081817F7F81827F7E868886848284848128
:1045700079787C7C797B78777676777A7B797879AD
:10458000727374777978777A828478777C7D7B7B95
:104590007A7B807E7C7E82817B7C7C7B797A818346
:1045A0008585848585858688898986888B8C8C8C91
:1045B0008B8C888787887F7D7C7E828085868683BA
:1045C0007A797A7A7C7A8887878381847A7870701E
:1045D0006F6A6E707B7A8281868582818082848117
:1045E0008485827E7D7F78777A7974717676747629
:1045F00075737A7C7A788385828285878787898AB2
:10460000868A7E7E7D807C7B82878B8C8C8E91904F
:10461000898C8F928F8D898B8C8B85898985787910
:104620007B7A74767D7C7F7E848688857D80817EA2
:104630007778817F797A7A78706F6E6F6F6B757724
:104640007C787A797B7776767D7977757F7F7C79D0
:104650007A7B706D7074747377777B7C7F838282D2
:104660007B7980847F808588868185878888828021
:104670007F8184847F838488888D908E86858387DC
:104680008A8A8785918E8D909091848687867F8394
:1046900088888589858584807E7F858084848E87CF
:1046A00084837F7873727A7B7370737874726E6EA2
:1046B0006F6D706F7A778180838177777675736E8F
:1046C000787774767578777676777A7B8183868744
:1046D00086898484808181837F807F7E7A7A7B7ED5
:1046E0007D82888983868A8F8C8F8D9390908E8F20
:1046F000908E8B8C888781828B8B8A898C928D900F
:104700008B8B898F8A8E8A8E8D8D878384817E792B
:10471000797B7F8081848686818382837F7F7D7C95
:104720007E7F81817C7B757174707273747576760F
:1047300073717776736D72767476706F6C6C716F5F
:1047400073726E6D71726E6F727475737C7B7C7A2E
:104750007D7F7C7A767B7978777780838383858683
:104760007F7A7C7D7F7F8C8C8E8C8D8C87847C7F08
:1047700081858486929091908F8C898989898A8796
:104780008D8E908F8E918D8D8A88888A898991915E
:1047900095958F8E8A8885838589898786878A897A
:1047A00082838081807F7E81828382817C7D7D7D0A
:1047B0007D7A787976777272716F717175757273AF
:1047C000727472737170716F7274727171706D6DD9
:1047D0006B696B6B696C7375706E6E706F6C6F72FA
:1047E000747474757575747171736F717373767297
:1047F0007A7D7E7F7F7F7A7E8384858387898786A3
:1048000081838582807D86848A868C8D90918C8F31
:104810008B8B8C8E9090928F8C8E8C888A8A8E8FC8
:104820008E8C8F8F8F8C8C908B8D878685858888DA
:104830008A898B8B89877F81828685898D8D878404
:1048400084847D7F7C7F818184878A898684807E41
:10485000797C7A7A79777E7B7875787773727677D8
:1048600075717171706F6E6E6F6C6C676E6A6E7160
:104870007477787472706F706D6B6D6F7575706E24
:1048800074777673747676797A7C79797B7D7B7AA6
:10489000787B7D7D7F7D84837D7C7C827E7D808234
:1048A000838484848487888788878A8885878A8C9C
:1048B0008C8D8D91918F85878A918F8E9090929219
:1048C0009190908F8F9291969297959592929396C0
:1048D00092918D8C8C8A8A8B8D8E8F8D8A8A888915
:1048E000858584868A8B8684878488827D797F808B
:1048F000888583837F7D7F7C7F7E7B7779797976DE
:1049000079777B78767577737372757779797A7C36
:104910007576716F6C697073727275787B7C78775D
:104920007374717170727073787A76747172737552
:104930007A78797A767575737A7B7E7F76757073FF
:104940007F8182817E80848584838684817E7F804E
:104950008484828387888887858587898A8B8B89E9
:1049600090908D898A8B8C8C85868A8B89878B8D9C
:104970008E918E8E8B8A8B8D8D8987898A8A84828F
:1049800088888A8986888A8C8B8B88888C8B888794
:1049900086878481807D868A8382818285878482DE
:1049A0007C7F7E7F7D7B7E7F7E7D7776777B7D7A49
:1049B0007A78787A7F7C7B7D7A7C7A787474706F71
:1049C00071707274737171707073767876787777AE
:1049D0007573747673716C6B6C6A6D6C74747676C7
:1049E000747574757473727174797877797A79786B
:1049F000767679777A787F7D7E7C7A7C7C7E8284FD
:104A00008685888A89868483818181818386868858
:104A10008C898584888885848381858583888A8E2E
:104A20008A8888888A8B8C8D9090908D8888878AD8
:104A30008A8A8B8B89898583878686838685878505
:104A40008385838583838584848383807D7B7D7D4B
:104A50007A777A7D7F7E7B7B7D7D79787A7A7777AE
:104A60007475757675757572757978767476787AE9
:104A700078797475767775737778797A75747779CC
:104A8000777778787775777777767A7B7C7C7D7F98
:104A9000828182808485817F8080888687858788DF
:104AA00084828081868581828587898887898988B3
:104AB0008A898B8C898A8D8A8A89888A8A898C8E50
:104AC0008D8D8C8D8E918F8E8F908F8D8C8B8A8A11
:104AD0008E8F8E90919290908E8D8B8F8E8D8E8DED
:104AE0008A8B8C8A88888786858584848787848555
:104AF00085848281808084847E7E7B7D7C7B7C7BC0
:104B00007C7D7D7C7A7C7A7976747777787574771A
:104B10007677747171727171707073757678737263
:104B200074736F6D6D6C7272716F717472736F6C80
:104B30006C6D6C6C717474746D6A6B6B6E6B6D6C98
:104B40006E70737570707576757574787D7B74741E
:104B500076777C7A777678797B7879797F817A7ABB
:104B60007D80847F7E808083858684848485848222
:104B70008385888784828687838185878A8A8A89D4
:104B80008A898D908D8B8A8C8C8C8D8C8D8B908E60
:104B9000908E8D91909085848C918D8B8C91949238
:104BA0008E8D8E908C8A8D8C8B8B8A888C8D8D903F
:104BB0008B8888898C8C8B8A8A8A88878584898C63
:104BC0008A86878B8A897F80828484838385848098
:104BD0007E807F7D7B7C7C7A7A7C79797978787726
:104BE00076767C7C7B797977777772716F7070716C
:104BF00073737678767374787B797776797975754F
:104C00007676777572717371707073717272757474
:104C10007271707173737272757571707172706F79
:104C2000747375767879797A777576757372787723
:104C300077787676767579797A7D8082807F817FC4
:104C40007D7E7B7B7D7C7E7D7D7D7D7E848581837D
:104C5000868782828283888A86858683808184840F
:104C6000858485858B8E8A8E898A8B8D8D8D8C8CA3
:104C70008D8B8D8D8B8B8B8D898D8E908D8C8D8E6C
:104C80008D8F8B8D8F8E8B8A908F8B8D8A8C90934E
:104C9000919393938E8E8D8B8C8D8B8C8B8B8C8B39
:104CA0008D8D8D908B8D8A8C8B8C89898A8A898950
:104CB0008887888683838788898884848387868A8F
:104CC000888882818483807E7F7D7C7D7A7D7E7FE3
:104CD0007F7E8383817E7E7D7D7E78797A787A7807
:104CE000787A7F807E7E7B7B78797675767576772D
:104CF0007877757477767474767474737374737468
:104D0000706F71716F6F706E706E6E6F6F707372A7
:104D10007272737476747371767576747672777551
:104D2000747578797A7978777A797573727274751F
:104D3000737475747775747276747675777879781C
:104D40007A7979797B7B797A79797A7779797C7EC6
:104D5000797B7C7D7C7C7B7D7F7F7E7B7D7E7E8284
:104D60007F7F8383848585878787898883848487F9
:104D700081818184868880808C8E8C8D8888888AC9
:104D800086888387888A878686888B8C88888D8E9C
:104D90008C8E888B8D918D8D8A8C88888384888A6F
:104DA00088898689888D8D8D8E8E8B8D8D8E8C8E4B
:104DB0008A8B8889898B878686868B8B87858B8D66
:104DC0008B8A898B8A8B848483848381817E808093
:104DD0007F808482828283817F7F8183807C7A7CD2
:104DE0007E7F7D7B7E7F7C7F7A7C7B7D7876787909
:104DF00077767576787D7577797A78797E7D79772B
:104E00007A7F7878757A7F7F7B77797B7370706F24
:104E100070727574757579787D7B7A7A7879777424
:104E200075767273757171757574777876767A792F
:104E3000797E7B78797B7C7E79797B7A787A797BCD
:104E40007B797B81837E818482817B7A7D827C7B7E
:104E50007B7B807E7E7F7F7D7B7C7C7D8080818173
:104E6000837E7D7D7D7D7D79808485828482848042
:104E70007F7D80817E7E7D7E81808182858083842E
:104E800085868786858A8C8B8A8B8C8B898785889B
:104E90008686868485858C8D8B868A8B929289887E
:104EA00087878583838487868A878C8D8F8E8B897D
:104EB0008E908F908D8E8C8B88898686848787874D
:104EC00086898D8F8C8A8D8F8F8D8789888986873B
:104ED000868887888485878786888487878883866D
:104EE0008888858482827F7E7C807C7C7C7E8082B8
:104EF000818284837F807E7F777575787A7B7A7CE8
:104F00007776757475797C7B7B7C7B7E7B7B79790E
:104F100076756F726E6F6F70707371747A7C7A765B
:104F2000787A7676737472747374797D7977717325
:104F300071716E6D7071787778777A7A7A7573722D
:104F4000737473727273777572727575777170702E
:104F50007775767478797A7B767776777A797A79D5
:104F60007E817F7B7E7E81807E797D7C7D7B7B7B6D
:104F70007D807F7D7E8082827E7B827F827D7E7C43
:104F80008082817F78787A7B7F7C8284888885861E
:104F900083847F7E7E7B7E7C7C7A7B7B8082818328
:104FA000898B888887888B89888688898689868680
:104FB00083838482848285878584858488898A889E
:104FC0008B8987847D7C7D80808284878C8C8C8893
:104FD0008B8A8B86888587888A8A84858486858360
:104FE000828285898585888A898887848383807E73
:104FF000818381848389858A8A8B8B8A8587898648
:10500000828181827F7B7C7D83817D7A7E7F8385A7
:105010008283828384807D7A7B78757475767B7ACF
:105020007B7E8182817D7B7B7E7E7F7D797E7C7CA9
:10503000787676787878787A7C7C7E7D7E80807FC2
:10504000827F7A777C7C777A797A7C7A7B7F868498
:10505000827E81817F7B7D7E7C7D807F7A79787A7C
:105060007677787B81827E818284827E7F80807E5B
:105070007A7A75787C7D76787D7F807D7C7E868867
:105080008684838381827B7C7D7B7E7B7A7C838329
:10509000838283848684818081827F7C74737D7E19
:1050A00082818382848177787F8184837E7F8285F9
:1050B000838585878281767A7A7E7D7A7A7B8B8EEC
:1050C00087858382898A7C7C7C7D79797B7D7F80E2
:1050D000797B7B7E828285868F928988808180829F
:1050E0008383898B8383807E82868F8F8A88888959
:1050F00081817C7B78767C7C898B807C80817A7CCA
:10510000737174777F8080817D7F89878A86817CB7
:10511000756F6E68706B726E75737D7C7E7B7E7C46
:105120007777777984858988898E8C908E8D929413
:1051300095968D8A817E7A747B77797777757F8271
:105140007B7C77787D7E7B7976767A7776757779D2
:105150007F7E7E7F888684808785838286868E8D0B
:105160008689787C797B808380838A8F8D919193E7
:105170008B8D9494939391908E8C807F7E7B7C78A2
:105180008983827D7F7E797B75798588878C84840D
:105190008280807B6E6C777878797B807E83818556
:1051A000898A7D7873727B7A7E7D7E7F8080757C34
:1051B00078797574827E7874777879757977757671
:1051C0006D6D77797A7574746F707978777B807E7E
:1051D0007E8381847C7D7978797775747A7B7A791E
:1051E00083838182868986887E7F797974717B7AD0
:1051F000766F7072747280837C7C7B7B7F7E7B7821
:105200007C7B7C7B818585848587797A7A7B7575C3
:1052100074787572797D7A757B7C8283807C7E81DF
:10522000848385887E7D868584859292928F9392F1
:10523000949495998B88828386837E7F82837E7EF9
:10524000828589898E8B8A8C9898999BA0A295914A
:105250008F928C888D909192888B8D8882828483A6
:105260007E828F8F88888484817F777776767D842D
:10527000817D82847E7A797C7F8087878E8E7C7E1A
:10528000817F7A7D858987878789827B7F818585F4
:10529000878C9092888A8C87817D827F8587888B96
:1052A00088887F7D74727C7C7D7A80857D79767636
:1052B0006D6A71767F848083837E76767E7A797C50
:1052C000888C83867E7F756C727179777C85807B14
:1052D00074756F6674787A7A767D7F7A716D6E6692
:1052E0006364747E797B8389786F7374756F737E62
:1052F0008181797E786D6C6E7E7E7F8687847C75F9
:10530000766F726D7B80878591938171746E6E6507
:10531000727B8180808485796D6A6B666C7185870C
:10532000807C7D77756D70748282898A8D7F7770BD
:10533000736A737C7E7F8386786D6F69706C7A8107
:10534000818B8C8F8A877873767C8287909A9691EE
:105350008B8C8783818A868A878C8C85827B777702
:10536000747B7C8A898A8E8C908B828A8E9696A09A
:105370009D9E9E9D93918A8C90968F9493908C87FE
:105380007D797F8382898A8C88807E767A7A7F8114
:10539000828783807F7A7A73787B7D7F7B8389891C
:1053A000847E808183868A909191858381787A78C2
:1053B00080848B8F8D948D888583807F848D858775
:1053C00083837F7D7D7A7B7E79787D81837C827FFC
:1053D000807A7F82838686887E7E726D7275727215
:1053E0007F848786878584827A7A7B7C77758084C0
:1053F0007F797C796E6E6B6A7674736E807F7C7653
:10540000787B807B78787D7F7C79777575757E80F9
:10541000837C7C7E817C7979827F77747A7A7D7DCA
:105420007D7D76746E747E7E828488887D7E7C7AB3
:1054300078727271736D7A777C77797677777A770D
:105440007C7D76747C7D7C798080807D79787675B2
:10545000726E79787B737D7D7D797F7C7D7C7779B9
:10546000807E7978787C7F7C8586817F85878F8D2B
:105470008D8E9796919397998A857B7E76757271BA
:105480007F7E777887898A89888A90918B8C93959B
:105490008E8F92928E8D91929892979A938B8B8CFD
:1054A0008C878682908E7C787B797775797B7A770A
:1054B000848A877F7F858A84797980817E7D7C7EDE
:1054C0007B7C82817F8086868D8A8A8E918F878879
:1054D000878A87837D8185837576808685838B9196
:1054E0008F8E8B8F8C8C7B807F7B777E807C7274A1
:1054F0008081827D868B8882828485827A797772A8
:10550000797C79736D6F767477727E82837C7C8010
:1055100082827F7D787A726E6A6C6E6D7374767536
:1055200076797A7878767F837A747C8379737277E8
:105530006F6F666874756F707F837E7B7F857E7BFF
:105540007D84807C7678787673737D7F7B777E84AC
:1055500088827E8085827977737778756A6B6D6BC8
:105560006B6B767374767E7E7F7E848589847F8183
:105570007F807876767772717471777B7E7A7A7EA7
:1055800086878A86898B817E777C777672756F6D48
:10559000797A8E8D9291989D9A9794958B887D7D3E
:1055A000787A7C7C828282818180898790909D9E9E
:1055B0009C9D97968E8E87868C8E909093919294D8
:1055C000918F8887888C8D8B878C89897A75777B7A
:1055D0007B74777C838271737E7D878588878584E1
:1055E0008289827A777D807B7B79878C87808288AD
:1055F0008B8989889093898A8787838086828F8C1C
:105600008D9189878489848489888C8B808079793D
:1056100070707B7A807C878B7B7573787B7A797EE0
:1056200081847A7A7E7F726E79797B767B7E7D7CCF
:105630006F727579797B83857B786F6D625F636547
:10564000777773737B7A716C70757575757B8283F0
:1056500078737573747079797C7C817F7B7A757AC5
:10566000767A7D8289897F79716C6F707A7A7D8490
:105670008582797575777372737C7E7E7C7B7E798B
:1056800072706E6D74747B7B7974757C7C7E7F86A2
:105690008C8E867D777575707274797F7F7F7D7B48
:1056A0007572727472727F8686817C7A83827B784F
:1056B000797C817C888792949395919597978F8D2B
:1056C0008480807F7E7B8183888D848283898584AA
:1056D000868A8E909698989894948E8D8A8B9795BA
:1056E0008F8E979993928E8F8989837F857F7B791F
:1056F0007D777C7D7C7E7D7F7F828184817F7D7ACA
:105700008281898A81837B7B7C7A808085878A8D70
:105710008E8E8B89878A868789897F7E8385898714
:10572000848582838181848A8A8B868283838A8A24
:10573000848382807C7A7C79828281808586828162
:105740007E7E807F7B77767575737B7B7B7B767BBC
:1057500072737373797C7C7D7D7E797D70716B6AE9
:10576000716F73746D6A6D7180807A746F73757503
:1057700071736F71757579787573746F70707176F8
:105780006E6B717675716F71787A736B706C747300
:105790007B7C77747378726D7D8490948B8B868616
:1057A0007A79797575737576787880837E7B7B7C62
:1057B000848584888386807F868687848A8D90917D
:1057C00092959C9D918D929690918E8F87807978FD
:1057D000786F787A8787848182847F7D8A8D8586B9
:1057E0007F8484827C797D7B7C7B838988868A8B9D
:1057F0008B898A89949A91918B8D8A85777979782A
:10580000878E94959A979694938F8F938D8F8C8B88
:10581000837D756F77777A7C858A8D8B898487867F
:105820008384878F8C8E7F806C68686874797F82B0
:1058300082878983848187857D808286817E737259
:105840006B63666A6D6D6E717473726E797A7A7855
:10585000868B817C72736B67666775797E7F8586C0
:105860007D797A7B7C7D7E8484867977767679777C
:1058700076797A7A84858481787879797D7C868551
:105880007C776A6969696D717676807F817C7776CD
:105890007A7D7C81878D8785797776716D6E787B4F
:1058A0007D818383797778787F7C82868C8C7D7EFE
:1058B000777774777B7A828587868A8693939496A6
:1058C0009A9D959491908C83807F7F7C888C919019
:1058D0008A8B8C8785828B8C8A8C91978F908B9208
:1058E0008A898D939393929497978C8C8C8C8684D1
:1058F0007F7F7D75736E78767C7D818382838988D6
:1059000088837F7F858585898D9084847D7E7B7863
:105910008084858384888A8B898D898B81827E7E31
:1059200079757E828384838786868484827F817E64
:105930007C7B7B7A72757678767670707075707411
:1059400077767C81898D8C8B828373706F69747399
:105950008181838485867F7F82808684817F797838
:10596000777A6F6B66686A66645C68675D5E6C6EAA
:1059700075717E7F837C7774736F666571756F6DEB
:10598000767977726D727A7B7D7F888A827F7E805E
:105990007B767F83817A747677736A6B7B81818172
:1059A0008F8E858172746F696F70807D7E7E7B754E
:1059B0006D686A6A737782808A89827D716D717180
:1059C000797784827C7776757774767882838E9205
:1059D0008B887C797678838183808A908A84898990
:1059E0009191979EA2A5999D928E747580897B79DD
:1059F0008B928A867E81817F8087969690999999ED
:105A000087858D8F9191989AA0A28F8D8C8B8A8794
:105A10009093939B8E8E85867D7D838385839190E5
:105A2000858081837D7B777A868783888B88818355
:105A3000867F858790938C867B7E82827D808A8A12
:105A400084887E7E7E7F7C79898B909395988B88E5
:105A500086867A78807E7D7E7C807E7B7479838565
:105A600083888B8C818280857D767F818382818013
:105A70007B79787C7C78828587858283848279763D
:105A800074706F6D7573706C6F6F6D6C6D71777C0A
:105A900075757272767C716B7073726D7475736FDD
:105AA000726F70767E7E7C7B808485857B7A7F7C3E
:105AB0006969757775727D7B7C7A7C807E7D818259
:105AC00080807E817D7A70717574726C7674767662
:105AD00075747979737280898D8982838181716D02
